:1000000020308400293010200730B500F530B400CE
:100010002930840034301520CA2F04068001840A58
:100020000406031D0D2864000034F0002120800028
:10003000840A04087006031D162800348312031373
:10004000B400B51B2C28351B342835088A00340829
:10005000B40A0319B50A82008313351883173408CC
:08006000B40A84000008080046
:100EDC008316031388018601831208008301A20084
:100EEC00860008178701881288171430A300A40104
:100EFC00A427881308008301A20086000813FF3082
:100F0C0087000813881288171430A300A401A427A3
:100F1C008813080038308127013081270A30A3005C
:100F2C00A401A427063081270A30A300A401A4271A
:100F3C00803081270A30A300A401A42F8301A501CE
:100F4C00A601BC2F83120313A701A801A70A03193A
:100F5C00A80A2808803AF00080307002EB300319A0
:100F6C002702031CAC2FA50A0319A60A2608803AEF
:100F7C00F0002408803A7002031DC62F23082502B6
:100F8C00031CA82F83010800831603138113870108
:100F9C00FF3083128700D030A3000730A400A427B1
:100FAC008701D030A3000730A400A427CE2F20083F
:100FBC00293E84008313000874270A30A300A4017F
:100FCC00A427A00A0319A10A2108803AF000803056
:100FDC0070020B3003192002031CDD2FF42F483450
:100FEC0045344C344C344F34203457344F34523411
:040FFC004C344434F9
:00000001FF
