:060000000A128A11042F10
:100E080083010A128A11702FF700770883120313DF
:100E180088008613061386160130F0000030F100B2
:100E28000A128A1132270A128A11831203138612B0
:100E38000800F70077088312031388008617061343
:100E480086160130F0000030F1000A128A113227AC
:100E58000A128A118312031386120800F301F4019F
:100E6800602FF501F6017608803AFF0080307F0296
:100E7800031D402FFA307502031C432F442F462FC1
:100E88005A2F5A2F0130F5070318F60A0030F607D3
:100E98007608803AFF0080307F02031D552FFA3014
:100EA8007502031C582F592F462F5A2F0130F3076C
:100EB8000318F40A0030F4077408803AF200710845
:100EC800803A7202031D6A2F70087302031C6D2F8B
:100ED8006E2F352F6F2F08008316031386018801A4
:100EE80038300A128A1108270A128A110130F000D4
:100EF8000030F1000A128A1132270A128A110C30C6
:100F08000A128A1108270A128A110130F0000030EB
:100F1800F1000A128A1132270A128A11C5300A1200
:100F28008A1108270A128A110130F0000030F100F6
:100F38000A128A1132270A128A1141300A128A11BA
:100F48001D270A128A1170300A128A111D270A12E7
:100F58008A1170300A128A111D270A128A116C3000
:100F68000A128A111D270A128A1165300A128A117B
:100F78001D270A128A111430F0000030F1000A12FD
:100F88008A1132270A128A111C300A128A1108277C
:100F98000A128A113C30F0000030F1000A128A115E
:100FA80032270A128A111C300A128A1108270A12DB
:100FB8008A113C30F0000030F1000A128A11322701
:100FC8000A128A111C300A128A1108270A128A1179
:100FD8003C30F0000030F1000A128A1132270A1260
:100FE8008A111C300A128A1108270A128A11FC2F4A
:080FF800FC2F0A128A110028E7
:00000001FF
