:100000000A128A11862E00308A000408840A8207A8
:1000100000346734673464346134003468346134E4
:04002000693400340B
:100C6000312E831203138C1D362E372E312E8C110C
:100C70000800F0003B2E831203130C1E402E412E61
:100C80003B2E422E700899000800831603130717A5
:100C90008717243098004030990090308312031356
:100CA00098000C16080083160313871507162830C2
:100CB00083120313940018308316031393005030EB
:100CC00094000800493432344334203454346534B9
:100CD000733474342034503472346F346734723463
:100CE00061346D3400347E088A007F0882000A1265
:100CF0008A1173260A128A118000840A04087D066C
:100D000003190034FF0A0319FE0A772EF601831334
:100D10003130FD000630FE006230FF0020308400DC
:100D20000A128A1177260A128A1183010A128A117D
:100D3000312FF3007030F1007108F200A62E740814
:100D40000A128A1139260A128A11A62E0130F307D7
:100D5000FF30730784000A128A1103200A128A11D5
:100D6000F1007108F400F408031DB72EB82E9F2E71
:100D7000B92E0800E72E0130F0020030031CF10309
:100D8000F102F201F3017308803AFF0080307F0224
:100D9000031DCC2EDC307202031CCF2ED02ED22E9F
:100DA000E72EE72E0130F2070318F30A0030F307AD
:100DB0007308803AFF0080307F02031DE12EDC3093
:100DC0007202031CE42EE52ED22EE72EE72E7108C8
:100DD0007004031DEC2EED2EBB2EEE2E08008316A4
:100DE000031311140A128A1130260A128A11A03034
:100DF0008312031393000A128A1130260A128A11F1
:100E00008312031393010A128A1130260A128A11DF
:100E1000F60110307602031C0E2F0F2F112F282FF2
:100E2000282F7608203E84008313000883120313C2
:100E300093000A128A1130260A128A110130F0003A
:100E40007008F60710307602031C272F282F112F69
:100E50008316031311150A128A1130260A128A11F9
:100E600008006430F0000030F1000A128A11BA263E
:100E70000A128A110A128A1153260A128A110A12B8
:100E80008A1145260A128A1101300A128A119926FE
:100E90000A128A111430F0000030F1000A128A118F
:100EA000BA260A128A110A128A11EF260A128A1128
:100EB0003230F0000030F1000A128A11BA260A120C
:100EC0008A1106300A128A1199260A128A110A1208
:100ED0008A1186270A128A110A3083120313990095
:100EE000712F0C1E742F752F712F762F0D309900D6
:100EF000F430F0000130F1000A128A11BA260A1209
:100F00008A11672F672F0A128A110028831603138C
:100F100011140A128A1130260A128A11A030831283
:100F2000031393000A128A1130260A128A118312BF
:100F3000031393010A128A1130260A128A11F4014E
:100F4000F5017508803AFF0080307F02031DAA2F4B
:100F500010307402031CAD2FAE2FB02FF72FF72FD8
:100F60008316031391140A128A1130260A128A1169
:100F7000A1308312031393000A128A1130260A1239
:100F80008A118316031391150A128A1130260A1248
:100F90008A11831603139116111611150A128A115C
:100FA00030260A128A118312031313080A128A11B7
:100FB00039260A128A111E30F0000030F1000A12A0
:100FC0008A11BA260A128A110130F4070318F50AA9
:100FD0000030F5077508803AFF0080307F02031D5E
:100FE000F32F10307402031CF62FF72FB02F831647
:100FF000031311150A128A1130260A128A110800E9
:02400E00723FFF
:00000001FF
