:060000000A128A11812F93
:100F020083010A128A11852F831603138801892F00
:100F12008312031388138816FA30F0000030F100B0
:100F22000A128A11C2270A128A1183120313881322
:100F32008812F430F0000130F1000A128A11C2273F
:100F42000A128A118312031388178812FA30F000EA
:100F52000030F1000A128A11C2270A128A11831282
:100F6200031388138812F430F0000130F1000A12E2
:100F72008A11C2270A128A11892F892F0A128A110D
:100F82000028F301F401F02FF501F6017608803A0A
:100F9200FF0081307F02031DD02F00307502031C39
:100FA200D32FD42FD62FEA2FEA2F0130F5070318BB
:100FB200F60A0030F6077608803AFF0081307F0299
:100FC200031DE52F00307502031CE82FE92FD62FF1
:100FD200EA2F0130F3070318F40A0030F40771080E
:100FE200803AF2007408803A7202031DFA2F7308E5
:0E0FF20070020318FD2FFE2FC52FFF2F0800E1
:02400E0072FF3F
:00000001FF
