:060000000A128A11122809
:10000800FE00030EF6000408F7000A08F800831241
:1000180003137F08F9000A128A111A2F0A128A118B
:10002800CE2F8316031386010F3088000F30870008
:100038008312031386010A128A15A7270A128A1146
:10004800383083120313E2000030E3000A128A15E5
:10005800B8270A128A110A3083120313DC00003011
:10006800DD000A128A15CC270A128A110C30831275
:100078000313E2000030E3000A128A15B8270A12B7
:100088008A110A3083120313DC000030DD000A12E3
:100098008A15CC270A128A11803083120313E200D2
:1000A8000030E3000A128A15B8270A128A110A30AA
:1000B80083120313DC000030DD000A128A15CC27F6
:1000C8000A128A11013083120313E2000030E300A0
:1000D8000A128A15B8270A128A110A3083120313E2
:1000E800DC000030DD000A128A15CC270A128A11BA
:1000F8008A3083120313E4008630E5000A128A115D
:100108005A270A128A11C03083120313E200003002
:10011800E3000A128A15B8270A128A110A308312D4
:100128000313DC000030DD000A128A15CC270A12FE
:100138008A11463083120313E4008630E5000A1260
:100148008A115A270A128A11DC3083120313DC0041
:100158000530DD000A128A15CC270A128A110130EF
:1001680083120313E2000030E3000A128A15B8274D
:100178000A128A110A3083120313DC000030DD00F2
:100188000A128A15CC270A128A119A30831203138D
:10019800E4008630E5000A128A115A270A128A11E9
:1001A800C03083120313E2000030E3000A128A15FC
:1001B800B8270A128A110A3083120313DC000030B0
:1001C800DD000A128A15CC270A128A1157308312C9
:1001D8000313E4008630E5000A128A115A270A122E
:1001E8008A11C43083120313DC000930DD000A12BF
:1001F8008A15CC270A128A11013083120313E200F0
:100208000030E3000A128A15B8270A128A110C294D
:1002180001308312031356065704031D14291529A8
:10022800152AD601D7010130E2000030E3000A1296
:100238008A15B8270A128A110A3083120313DC00C0
:100248000030DD000A128A15CC270A128A11803084
:1002580083120313E2000030E3000A128A15B8275C
:100268000A128A110A3083120313DC000030DD0001
:100278000A128A15CC270A128A1183120313D20193
:10028800D3015308803AFF0080307F02031D4E29B6
:1002980020305202031C512952295429EF29EF29F1
:1002A800831203135308803AFF0080307F02031D36
:1002B8005F2910305202031862296329902983129A
:1002C80003135208203E840083130008263A0319BA
:1002D8006E296F29CD295208803EE2005308031881
:1002E800013E003EE3000A128A15B8270A128A1155
:1002F800831203135208203E840083130008E80089
:10030800E9016808E2006908E3000A128A11EC258D
:100318000A128A11CD29CD29831203135308803A72
:10032800FF0080307F02031D9B2911305202031CFD
:100338009E299F29CD29831203135208203E840049
:1003480083130008263A0319AA29AB29CD29520894
:10035800AF3EE20053080318013E003EE3000A12D4
:100368008A15B8270A128A11831203135208203EED
:10037800840083130008E800E9016808E2006908BE
:10038800E3000A128A11EC250A128A11CD29CD2917
:10039800CD29831203135208203E840083130008DA
:1003A800263A031DD829D929DB29EF29EF2901305D
:1003B800D2070318D30A0030D3075308803AFF0046
:1003C80080307F02031DEA2920305202031CED29E8
:1003D800EE295429EF29A03083120313DC000F30D3
:1003E800DD000A128A15CC270A128A1101308312FD
:1003F8000313E2000030E3000A128A15B8270A1234
:100408008A110A3083120313DC000030DD000A125F
:100418008A15CC270A128A1183120313D401D50135
:10042800152A8030E2000030E3000A128A15B82746
:100438000A128A110A3083120313DC000030DD002F
:100448000A128A15CC270A128A1124308312031340
:10045800E4008630E5000A128A115A270A128A1126
:10046800C03083120313E2000030E3000A128A1539
:10047800B8270A128A110A3083120313DC000030ED
:10048800DD000A128A15CC270A128A11123083124B
:100498000313E4008630E5000A128A115A270A126B
:1004A8008A118312031307185A2A5B2A422B5D2AE2
:1004B8005D2A071C602A612A5D2A622A0130E2004F
:1004C8000030E3000A128A15B8270A128A110A3086
:1004D80083120313DC000030DD000A128A15CC27D2
:1004E8000A128A11683083120313E4008630E5008B
:1004F8000A128A115A270A128A11822A83120313AE
:10050800081C872A882A952A881C8B2A8C2A952ACF
:10051800081D8F2A902A952A8819932A942A822AB4
:10052800952A0818982A992AAA2A9B2A9B2A081CDD
:100538009E2A9F2A9B2AA02AAA30E2008630E3003E
:100548000A128A1197270A128A11AA2A83120313F8
:100558008818AF2AB02AC12AB22AB22A881CB52A1A
:10056800B62AB22AB72AC630E2008630E3000A1259
:100578008A1197270A128A11C12A831203130819AC
:10058800C62AC72AD82AC92AC92A081DCC2ACD2A88
:10059800C92ACE2AE230E2008630E3000A128A1124
:1005A80097270A128A11D82A831203138819DD2A79
:1005B800DE2AF52AE02AE02A881DE32AE42AE02A2E
:1005C800E52AFE30E2008630E3000A128A119727F6
:1005D8000A128A110D300A128A11F1270A128A1199
:1005E800F52A803083120313E2000030E3000A1278
:1005F8008A15B8270A128A110A3083120313DC00FD
:100608000030DD000A128A15CC270A128A1135300B
:1006180083120313E4008630E5000A128A115A2770
:100628000A128A11C03083120313E2000030E3007B
:100638000A128A15B8270A128A110A30831203137C
:10064800DC000030DD000A128A15CC270A128A1154
:10065800793083120313E4008630E5000A128A1108
:100668005A270A128A11392B392B83120313570878
:1006780056040319402B412B392B422B8718452B45
:10068800462B272C482B482B871C4B2B4C2B482BB5
:100698004D2B0130E2000030E3000A128A15B8271A
:1006A8000A128A110A3083120313DC000030DD00BD
:1006B8000A128A15CC270A128A116830831203138A
:1006C800E4008630E5000A128A115A270A128A11B4
:1006D8006D2B83120313081C722B732B802B881C21
:1006E800762B772B802B081D7A2B7B2B802B881958
:1006F8007E2B7F2B6D2B802B0818832B842B952B1F
:10070800862B862B081C892B8A2B862B8B2BB130AA
:10071800E2008630E3000A128A1197270A128A112A
:10072800952B8312031388189A2B9B2BAC2B9D2B8C
:100738009D2B881CA02BA12B9D2BA22BCD30E2003A
:100748008630E3000A128A1197270A128A11AC2B05
:10075800831203130819B12BB22BC32BB42BB42B60
:10076800081DB72BB82BB42BB92BE930E200863023
:10077800E3000A128A1197270A128A11C32B8312DF
:1007880003138819C82BC92BDA2BCB2BCB2B881D2D
:10079800CE2BCF2BCB2BD02B0530E2008730E300BC
:1007A8000A128A1197270A128A11DA2B80308312CB
:1007B8000313E2000030E3000A128A15B8270A1270
:1007C8008A110A3083120313DC000030DD000A129C
:1007D8008A15CC270A128A11353083120313E400D4
:1007E8008630E5000A128A115A270A128A11C03087
:1007F80083120313E2000030E3000A128A15B827B7
:100808000A128A110A3083120313DC000030DD005B
:100818000A128A15CC270A128A1179308312031317
:10082800E4008630E5000A128A115A270A128A1152
:100838001E2C1E2C83120313570856040319252C4B
:10084800262C1E2C272C07192A2C2B2C0C2D2D2C52
:100858002D2C071D302C312C2D2C322C0130E20090
:100868000030E3000A128A15B8270A128A110A30E2
:1008780083120313DC000030DD000A128A15CC272E
:100888000A128A11683083120313E4008630E500E7
:100898000A128A115A270A128A11522C8312031338
:1008A800081C572C582C652C881C5B2C5C2C652C40
:1008B800081D5F2C602C652C8819632C642C522C25
:1008C800652C0818682C692C7A2C6B2C6B2C081C4E
:1008D8006E2C6F2C6B2C702CB830E2008630E30045
:1008E8000A128A1197270A128A117A2C8312031383
:1008F80088187F2C802C912C822C822C881C852C8B
:10090800862C822C872CD430E2008630E3000A1231
:100918008A1197270A128A11912C83120313081936
:10092800962C972CA82C992C992C081D9C2C9D2C26
:10093800992C9E2CF030E2008630E3000A128A11CE
:1009480097270A128A11A82C831203138819AD2C31
:10095800AE2CBF2CB02CB02C881DB32CB42CB02CD2
:10096800B52C0C30E2008730E3000A128A11972771
:100978000A128A11BF2C803083120313E200003060
:10098800E3000A128A15B8270A128A110A3083125C
:100998000313DC000030DD000A128A15CC270A1286
:1009A8008A11353083120313E4008630E5000A12F9
:1009B8008A115A270A128A11C03083120313E200DF
:1009C8000030E3000A128A15B8270A128A110A3081
:1009D80083120313DC000030DD000A128A15CC27CD
:1009E8000A128A11793083120313E4008630E50075
:1009F8000A128A115A270A128A11032D032D83120B
:100A080003135708560403190A2D0B2D032D0C2D1B
:100A180087190F2D102D0C29122D122D871D152D1C
:100A2800162D122D172D0130E2000030E3000A12B6
:100A38008A15B8270A128A110A3083120313DC00B8
:100A48000030DD000A128A15CC270A128A11683094
:100A580083120313E4008630E5000A128A115A272C
:100A68000A128A11372D83120313081C3C2D3D2DC1
:100A78004A2D881C402D412D4A2D081D442D452DF9
:100A88004A2D8819482D492D372D4A2D08184D2DE6
:100A98004E2D5F2D502D502D081C532D542D502DAB
:100AA800552DBF30E2008630E3000A128A119727DD
:100AB8000A128A115F2D831203138818642D652D7D
:100AC800762D672D672D881C6A2D6B2D672D6C2D53
:100AD800DB30E2008630E3000A128A1197270A12F7
:100AE8008A11762D8312031308197B2D7C2D8D2DE9
:100AF8007E2D7E2D081D812D822D7E2D832DF73094
:100B0800E2008630E3000A128A1197270A128A1136
:100B18008D2D831203138819922D932DA42D952DB5
:100B2800952D881D982D992D952D9A2D1330E2001D
:100B38008730E3000A128A1197270A128A11A42D16
:100B4800803083120313E2000030E3000A128A1592
:100B5800B8270A128A110A3083120313DC00003006
:100B6800DD000A128A15CC270A128A110030831276
:100B78000313E4008630E5000A128A115A270A1284
:100B88008A11C03083120313E2000030E3000A1216
:100B98008A15B8270A128A110A3083120313DC0057
:100BA8000030DD000A128A15CC270A128A11793022
:100BB80083120313E4008630E5000A128A115A27CB
:100BC8000A128A110C290C290C290A128A111228D6
:100BD8008312031362088600081788170130DC00A7
:100BE8000030DD000A128A15CC270A128A118312F6
:100BF80003138813FF2D0800203420347234653421
:100C08007134753465347334743420347334653412
:100C18006E3464342034203420340034203470346A
:100C28006C347334203465346E34743465347234FF
:100C38002034633461347234643420342034003412
:100C480020342034203420342034573445344C3474
:100C580043344F344D344534203420342034203448
:100C6800003420342034723465347134753465347A
:100C7800733474342034733465346E3464342034FB
:100C880020340034203420344434653470347434CF
:100C98002E3420346F34663420346534633465343C
:100CA8002034203400342034203420346634613435
:100CB800723465342034533479347334743465347D
:100CC8006D34203420340034203465346E34743468
:100CD8006534723420346C346F3463346134743462
:100CE80069346F346E342034003420342A342A3482
:100CF8002A342034773461346934743469346E3476
:100D0800673420342A342A342A34003420342034F6
:100D180047344534433420345734613479346134AA
:100D28006E34613464342034203400342034203468
:100D38004134753474346F346D34613474346934C7
:100D480063342034623475347334003424343134D9
:100D580030343034313430340034243431343034A5
:100D68003134313430340034243431343034323492
:100D78003134303400342434313430343334313481
:100D88003034003424343134303430343134313474
:100D98000034243431343034313431343134003493
:100DA800243431343034323431343134003424345E
:100DB8003134303433343134313400342434313440
:100DC8003034303431343234003424343134303433
:100DD8003134313432340034243431343034323420
:100DE800313432340034243431343034333431340F
:100DF8003234003424343134303430343134333400
:100E08000034243431343034313431343334003420
:100E180024343134303432343134333400342434EB
:100E280031343034333431343334003483160313DB
:100E38008C1E1F2F202F4E2F831203138C1E252F3D
:100E4800262F4E2F8C121A08F5005408203E8400D5
:100E58007508831380005408203E84000008263A51
:100E6800031D372F382F472F0130D6000030D70009
:100E78005408203E840080010130D4070318D50AA5
:100E88000030D507472F0130D4070318D50A0030A2
:100E9800D5074E2F79088312FF0078088A00770853
:100EA8008400760E8300FE0E7E0E0900852F8312C5
:100EB80003136508FF00640884000A128A150020DD
:100EC8000A128A11E600E7016608E2006708E300F3
:100ED8000A128A11EC250A128A11013083120313AF
:100EE800DC000030DD000A128A15CC270A128A11AC
:100EF800013083120313E4070318E50A0030E507FD
:100F0800852F831203136508FF00640884000A1202
:100F18008A1500200A128A110038031D942F952F74
:100F28005B2F962F0800BC2F831203136308FF0062
:100F3800620884000A128A1500200A128A110A120D
:100F48008A11F1270A128A11013083120313DC0077
:100F58000030DD000A128A15CC270A128A110130E6
:100F680083120313E2070318E30A0030E307BC2FD8
:100F7800831203136308FF00620884000A128A15AB
:100F880000200A128A110038031DCB2FCC2F982F6E
:100F9800CD2F0800F001F101F201F301F4018313F0
:100FA800203084005C300A128A159F270A128A11A1
:100FB800A0308400F0300A128A159F270A128A117D
:100FC800831790308400A9300A128A159F270A12C5
:100FD8008A1183010A128A11152883120313DC006F
:100FE8005C089900F72F83160313981CFC2FFD2F1C
:060FF800F72F981008001D
:10100000FF1B0A2883137F1883170008840A03191B
:10101000FF0A08007F087F398A000408840A031940
:04102000FF0A820041
:101F3E0064008001840A0406031900340406A02FED
:101F4E00831603138717071381309900C0308B0057
:101F5E008C16243098009030831203139800B72FFC
:101F6E0008008312031362088600081388170130D5
:101F7E00DC000030DD000A128A15CC270A128A1501
:101F8E00831203138813CB2F080083120313DE0171
:101F9E00DF01F42FE001E10100306102FB30031993
:101FAE006002031CDB2FDC2FDE2FEE2FEE2F013015
:101FBE00E0070318E10A0030E10700306102FB3050
:101FCE0003196002031CEC2FED2FDE2FEE2F0130D4
:101FDE00DE070318DF0A0030DF075D085F02031D0E
:101FEE00FA2F5C085E02031CFD2FFE2FD12FFF2F50
:021FFE000800D9
:02400E0072FF3F
:00000001FF
