:04000000A001C02F6C
:100F56008316031311151119AE2F83120800831679
:100F6600031391149118B52F8312080083160313E7
:100F760011141118BC2F83120800FF3083160313B7
:100F860086008312860183010028831603139112BB
:100F96001116111ACC2F831208008301A000200815
:100FA600930083161418D42FE02F8316031391167B
:100FB6001116111ADC2F8312080083160313110869
:100FC6001F3903191419E02F83120800831603131F
:100FD6009115141CEC2F83121308A000E02720089B
:100FE60008008316031387150716941728308312F3
:0A0FF6009400831693008312080094
:00000001FF
