:10000000203084002A300820BC2F04068001840A96
:0A0010000406031D052864000034F7
:100EDE008316031311151119722F8312080083162E
:100EEE00031391149118792F83120800831603139C
:100EFE0011141118802F83120800831603139112F8
:100F0E001116111A882F83120800831603139116D7
:100F1E001116111A902F831208008301A9002908B7
:100F2E00930083161418982F9C2F83160313110801
:100F3E001F39031914199C2F8312080083160313EB
:100F4E009115141CA82F83121308A9009C27290899
:100F5E00080083160313871507169417283083127B
:100F6E009400831693008312080083120313A101C9
:100F7E00A201A301A401A40AA501A50AA601A60A1D
:100F8E000930A700A801B0277D27D0309427003064
:100F9E009427A0012008213E840083130008942783
:100FAE00A00A08302002031CD12F6F277D27D030D6
:100FBE009427003094277627D13094270830A0004C
:100FCE002008213E84008313A52783138000200868
:100FDE00F000F101FF30F007031CF10771087004F7
:100FEE000319FB2F8427FC2F8C27A00BE72F6F27CD
:020FFE00FF2FC3
:00000001FF
