:060000000A128A11802F94
:100F000083010A128A119F2F831203138718892FD6
:100F10008A2F8F2F071D8D2F8E2F8F2F0815871C3F
:100F2000922F932F982F071C962F972F982F0811E9
:100F300007199B2F9C2F9E2F08119E2F0800FF3012
:100F40008316031387008801831203130811881185
:100F5000A92F831203138719AE2FAF2FF22FF001A1
:100F6000F10101307102F43003197002031CB92F32
:100F7000BA2FBC2FA92FA92FF201F301053073025C
:100F8000DC3003197202031CC62FC72FC92FE12FB3
:100F9000E12F0A128A1184270A128A11831203137D
:100FA00088150130F2070318F30A0030F307053003
:100FB0007302DC3003197202031CDF2FE02FC92FEC
:100FC000E12F0130F0070318F10A0030F10701307A
:100FD0007102F43003197002031CEF2FF02FBC2FA5
:100FE000A92FA92F0A128A1184270A128A118312A3
:100FF00003138811A92FA92FA92F0A128A110028DB
:00000001FF
