:060000000A128A11A32F71
:100F460083010A128A11A72F8316031387018312BE
:100F560003138701F001F1017108803AFF00873021
:100F66007F02031DB82FD0307002031CBB2FBC2F8D
:100F7600BE2FD22FD22F0130F0070318F10A00300E
:100F8600F1077108803AFF0087307F02031DCD2FDD
:100F9600D0307002031CD02FD12FBE2FD22FFF309E
:100FA600831203138700F001F1017108803AFF00F4
:100FB60087307F02031DE12FD0307002031CE42F1F
:100FC600E52FE72FAA2FAA2F0130F0070318F10A01
:100FD6000030F1077108803AFF0087307F02031D59
:100FE600F62FD0307002031CF92FFA2FE72FAA2F05
:0A0FF600AA2FAA2F0A128A11002860
:00000001FF
