:060000000A128A151A2EF7
:10000A008316031307168715313093008030940046
:10001A0028308312031394000800F5000A128A1587
:10002A0023260A128A111F280A128A1523260A125F
:10003A008A111F28D0300A128A1579260A128A11C3
:10004A0003182828292819282A2875080A128A151F
:10005A0079260A128A11F601F701462876087107ED
:10006A00F30073088400831300080A128A1579269C
:10007A000A128A110130F6070318F70A0030F70747
:10008A0046287208F300F40174087702031D4F280A
:10009A0073087602031C52285328332854280A125C
:1000AA008A152E260A128A110800F6000A128A15E3
:1000BA0023260A128A1167280A128A1523260A1287
:1000CA008A116728D0300A128A1579260A128A11EB
:1000DA000318702871286128722876080A128A156E
:1000EA0079260A128A110A128A1539260A128A11DF
:1000FA00D1300A128A1579260A128A110A128A1529
:10010A005C260A128A11F4007108840074088313A9
:10011A0080000130F7000030F800AD280A128A1575
:10012A0050260A128A110A128A155C260A128A11A4
:10013A00F40077087107F5007508840074088313C2
:10014A0080000130F7070318F80A0030F807AD28D5
:10015A0073087802031DB32872087702031CB628B5
:10016A00B7289328B8280A128A1544260A128A112F
:10017A000A128A152E260A128A1108003530F90049
:10018A007908F1000430F2000030F30003300A125B
:10019A008A115A200A128A11831203133608F900A7
:1001AA007908FD000A30F9007908F0007D08FA00A4
:1001BA0004300310FA0CFF3E031DDE287A080A12E7
:1001CA008A1590260A128A11FB007D080F397B07CF
:1001DA00FC007C0883120313B6003708F90079087B
:1001EA00FD000A30F9007908F0007D08FA000430B1
:1001FA000310FA0CFF3E031DFD287A080A128A151D
:10020A0090260A128A11FB007D080F397B07FC0031
:10021A007C0883120313B7003808F9007908FD0037
:10022A000A30F9007908F0007D08FA00043003105A
:10023A00FA0CFF3E031D1C297A080A128A15902619
:10024A000A128A11FB007D080F397B07FC007C0823
:10025A0083120313B800353032290800F601F11F62
:10026A00372938294129F009F109F00A0319F10A55
:10027A00F6010314F60D4129F31F442945294F2994
:10028A00F209F309F20A0319F30A0130F4007408B7
:10029A00F6064F29F701F801710870040319562967
:1002AA0057299529F5010314F50D67290130031023
:1002BA00F00DF10DFF3E031D5C290130F4007408B6
:1002CA00F5076729F11F6A296B295B296D296D29B1
:1002DA0001300310F70DF80DFF3E031D6E2971085A
:1002EA007302031D7A2970087202031C7D297E2974
:1002FA0086297008F2027108031CF303F3027714CB
:10030A00862901300310F10CF00CFF3E031D8729EA
:10031A000130F502031D922993296D299529952902
:10032A007608031D99299F29F709F809F70A03197D
:10033A00F80A9F297808F101F1077708F001F00718
:10034A00A6290800831203130610861006128612C5
:10035A0006138613831603130610861006128612D6
:10036A00061386130230F7000430F600BA30F5009F
:10037A00F50BBD29F60BBD29F70BBD2964000F301B
:10038A00F50075088312031386053030F5007508E9
:10039A0086040A128A15A8260A128A112730F6003C
:1003AA00F530F500F50BD729F60BD7290F30F500F4
:1003BA0075088312031386053030F5007508860424
:1003CA000A128A15A8260A128A11D630F500ED29D2
:1003DA00EE29F50BEC2964000F30F500750883123D
:1003EA00031386053030F500750886040A128A154B
:1003FA00A8260A128A110D30F600FB30F500F50B1B
:10040A00042AF60B042A092A0F30F500750883120C
:10041A000313860586160A128A15A8260A128A1155
:10042A000D30F600FB30F500F50B192AF60B192AE8
:10043A001E2A28300A128A15E2260A128A110C305C
:10044A000A128A15E2260A128A1101300A128A153C
:10045A00E2260A128A1106300A128A15E2260A12BE
:10046A008A1108003530F9007908F1000330F200EA
:10047A000030F30000300A128A115A200A128A1137
:10048A00831203133508F9007908FD000A30F900D0
:10049A007908F0007D08FA0004300310FA0CFF3ED8
:1004AA00031D522A7A0807390A128A1590260A1257
:1004BA008A11FB007D080F397B07FC007C08831238
:1004CA000313B5003608F9007908FD000A30F9006F
:1004DA007908F0007D08FA0004300310FA0CFF3E98
:1004EA00031D722A7A080A128A1590260A128A119C
:1004FA00FB007D080F397B07FC007C08831203137D
:10050A00B600371F892A8A2AB52AB71E8D2A8E2A4B
:10051A00922AB8010314B80D942AB801942A37080C
:10052A00F9007908FD000A30F9007908F0007D0821
:10053A00FA0004300310FA0CFF3E031D9F2A7A08C2
:10054A0001390A128A1590260A128A11FB007D08BF
:10055A000F397B07FC007C0883120313B700D92AE2
:10056A003708F9007908FD000A30F9007908F00027
:10057A007D08FA0004300310FA0CFF3E031DC02A5E
:10058A007A080A128A1590260A128A11FB007D0837
:10059A000F397B07FC007C0883120313B700023073
:1005AA00F9007908B800D92A3530DB2A0800FC009E
:1005BA000A30F0000030F1007B0883120313A00018
:1005CA00A1012008F2002108F3000A128A159A27CD
:1005DA000A128A11700883120313A2007108A30079
:1005EA000A30F0000030F1007B08A400A5012408BD
:1005FA00F2002508F3000A128A1133210A128A111D
:10060A00700883120313A60003300310A60DFF3EE1
:10061A00031D0A2B0310260D2204A7002708B50084
:10062A000A30F0000030F1007A08A000A101200889
:10063A00F2002108F3000A128A159A270A128A116F
:10064A00700883120313A2007108A3000A30F00095
:10065A000030F1007A08A400A5012408F200250858
:10066A00F3000A128A1133210A128A1170088312BE
:10067A000313A60003300310A60DFF3E031D402BF3
:10068A000310260D2204A7002708B6000A30F0003E
:10069A000030F1007908A000A1012008F200210829
:1006AA00F3000A128A159A270A128A11700883120D
:1006BA000313A2007108A3000A30F0000030F10011
:1006CA007908A400A5012408F2002508F3000A12FB
:1006DA008A1133210A128A11700883120313A600A1
:1006EA0003300310A60DFF3E031D762B0310260DC3
:1006FA002204A7002708B7008B2B3717932B6030EB
:10070A00A0002008B704932B932B932B7C08003A64
:10071A000319822B013A0319842B932B3530A0003D
:10072A002008F1000330A1002108F20000300A126B
:10073A008A1112200A128A110800FB000A128A156D
:10074A0069260A128A110A30F0000030F1007B088B
:10075A00023E840083130008F900FA017908F200C6
:10076A007A08F3000A128A1133210A128A117008D0
:10077A00303E0A128A150E270A128A110A30F00030
:10078A000030F1007B08023E840083130008F90060
:10079A00FA017908F2007A08F3000A128A159A27F0
:1007AA000A128A117008303E0A128A150E270A1296
:1007BA008A113A300A128A150E270A128A110A3049
:1007CA00F0000030F1007B08013E8400831300082A
:1007DA00F900FA017908F2007A08F3000A128A117C
:1007EA0033210A128A117008303E0A128A150E271E
:1007FA000A128A110A30F0000030F1007B08013E2B
:10080A00840083130008F900FA017908F2007A08D3
:10081A00F3000A128A159A270A128A117008303EC2
:10082A000A128A150E270A128A113A300A128A15F2
:10083A000E270A128A110A30F0000030F1007B08F4
:10084A00840083130008F900FA017908F2007A0893
:10085A00F3000A128A1133210A128A117008303EF3
:10086A000A128A150E270A128A110A30F00000307D
:10087A00F1007B08840083130008F900FA01790863
:10088A00F2007A08F3000A128A159A270A128A11C4
:10089A007008303E0A128A150E270A128A11203071
:1008AA000A128A150E270A128A11712C2D300A1281
:1008BA008A15C1260A128A117D2C30300A128A152D
:1008CA00C1260A128A117D2C48300A128A150E276F
:1008DA000A128A117D2C7D2C7B08033E8400831327
:1008EA000008003A03195B2C013A0319622C692C9F
:1008FA000800FC000A30F0000030F1007B08831287
:10090A000313A000A1012008F2002108F3000A1233
:10091A008A159A270A128A11700883120313A200F1
:10092A007108A3000A30F0000030F1007B08A4002F
:10093A00A5012408F2002508F3000A128A113321BE
:10094A000A128A11700883120313A60003300310D7
:10095A00A60DFF3E031DAC2C0310260D2204A70092
:10096A002708B5000A30F0000030F1007C08A0002A
:10097A00A1012008F2002108F3000A128A159A2719
:10098A000A128A11700883120313A2007108A300C5
:10099A000A30F0000030F1007C08A400A501240808
:1009AA00F2002508F3000A128A1133210A128A1169
:1009BA00700883120313A60003300310A60DFF3E2E
:1009CA00031DE22C0310260D2204A7002708B600F7
:1009DA000A30F0000030F1007908A000A1012008D7
:1009EA00F2002108F3000A128A159A270A128A11BC
:1009FA00700883120313A2007108A3000A30F000E2
:100A0A000030F1007908A400A5012408F2002508A5
:100A1A00F3000A128A1133210A128A11700883120A
:100A2A000313A60003300310A60DFF3E031D182D65
:100A3A000310260D2204A7002708B7000A30F00089
:100A4A000030F1007A08A000A1012008F200210874
:100A5A00F3000A128A159A270A128A117008831259
:100A6A000313A2007108A3000A30F0000030F1005D
:100A7A007A08A400A5012408F2002508F3000A1246
:100A8A008A1133210A128A11700883120313A600ED
:100A9A0003300310A60DFF3E031D4E2D0310260D35
:100AAA002204A7002708B8003530A0002008F1006A
:100ABA000430A1002108F20003300A128A11122020
:100ACA000A128A110800FB00C0300A128A15E226AF
:100ADA000A128A110A30F0000030F1007B08013E48
:100AEA00840083130008F900FA017908F2007A08F1
:100AFA00F3000A128A1133210A128A117008303E51
:100B0A000A128A150E270A128A110A30F0000030DA
:100B1A00F1007B08013E840083130008F900FA0102
:100B2A007908F2007A08F3000A128A159A270A123B
:100B3A008A117008303E0A128A150E270A128A1183
:100B4A002F300A128A150E270A128A110A30F0006B
:100B5A000030F1007B08023E840083130008F9008C
:100B6A00FA017908F2007A08F3000A128A1133218D
:100B7A000A128A117008303E0A128A150E270A12C2
:100B8A008A110A30F0000030F1007B08023E84002E
:100B9A0083130008F900FA017908F2007A08F300D1
:100BAA000A128A159A270A128A117008303E0A1206
:100BBA008A150E270A128A112F300A128A150E2751
:100BCA000A128A110A30F0000030F1007B08033E55
:100BDA00840083130008F900FA017908F2007A0800
:100BEA00F3000A128A1133210A128A117008303E60
:100BFA000A128A150E270A128A110A30F0000030EA
:100C0A00F1007B08033E840083130008F900FA010F
:100C1A007908F2007A08F3000A128A159A270A124A
:100C2A008A117008303E0A128A150E270A128A1192
:100C3A0020300A128A150E270A128A115D2E1D30DB
:100C4A000A128A15C1260A128A11772E15300A123B
:100C5A008A15C1260A128A11772E11300A128A15AC
:100C6A00C1260A128A11772E29300A128A15C1263C
:100C7A000A128A11772E19300A128A15C1260A1207
:100C8A008A11772E25300A128A15C1260A128A116C
:100C9A00772E21300A128A15C1260A128A11772E56
:100CAA000D300A128A15C1260A128A11772E772E5A
:100CBA007B08840083130008013A0319242E033A9F
:100CCA0003192B2E013A0319322E073A0319392E2A
:100CDA00013A0319402E033A0319472E013A031920
:100CEA004E2E552E080083120313AB01AC01AD0141
:100CFA00B001AE01AF010818832E842EFF2F862E75
:100D0A00862E081C892E8A2E862E8B2E0A128A116E
:100D1A0037220A128A1183120313A8002808B10085
:100D2A0001300A128A15E2260A128A118312031363
:100D3A0031080A128A11A2230A128A1181300A1270
:100D4A008A15E2260A128A110E300A128A15E2263A
:100D5A000A128A11B12EB12E83120313881CB62EE1
:100D6A00B72EC12E081DBA2EBB2EC12E8819BE2E33
:100D7A00BF2EB12EC12EC12EAB08031DC52EC62E05
:100D8A00D32E0230A8002808B0008130A800280815
:100D9A00AE000C30A8002808AF00F52EAC08031DE1
:100DAA00D72ED82EE42EB0010314B00D8430A8003B
:100DBA002808AE003C30A8002808AF00F52EAD0880
:100DCA00031DE82EE92EF52EB0018730A800280869
:100DDA00AE003C30A8002808AF00F52EF52EF52EFF
:100DEA000819F82EF92E3F2FFB2EFB2E081DFE2E7A
:100DFA00FF2EFB2E002F30083107A8002808840098
:100E0A0083130008013EA90030083107AA002A0806
:100E1A0084002908800030083107A80028088400C7
:100E2A002F080002031C1A2F1B2F222F300831070C
:100E3A00A800280884008001222F01300A128A158E
:100E4A00E2260A128A118312031331080A128A113E
:100E5A00A2230A128A11831203132E080A128A1570
:100E6A00E2260A128A110E300A128A15E2260A129C
:100E7A008A11B12E8819422F432F8B2F452F452FC8
:100E8A00881D482F492F452F4A2F30083107A800BF
:100E9A002808840083138008031D542F552F5F2FC1
:100EAA002F08013EA80030083107A900290884004C
:100EBA002808800030083107A800280884000008A4
:100ECA00FF3EA90030083107AA002A088400290831
:100EDA00800001300A128A15E2260A128A11831248
:100EEA00031331080A128A11A2230A128A118312E1
:100EFA0003132E080A128A15E2260A128A110E30E4
:100F0A000A128A15E2260A128A11B12E88188E2F21
:100F1A008F2FFF2F912F912F881C942F952F912F70
:100F2A00962FAB08031D9A2F9B2FAE2F84300A12DF
:100F3A008A15E2260A128A110E300A128A15E22648
:100F4A000A128A1183120313AB010314AB0DB12EDB
:100F5A00FF2FAC08031DB22FB32FC62F87300A12FA
:100F6A008A15E2260A128A110E300A128A15E22618
:100F7A000A128A1183120313AC010314AC0DB12EA9
:100F8A00FF2FAD08031DCA2FCB2FD02FAD0103149D
:100F9A00AD0DB12EFF2FAB01AC01AD013108023E00
:100FAA00840083130008A8002808F9003108013ECC
:100FBA0084000008A9002908FA0031088400000802
:100FCA00AA002A08FB0002300A128A11DC220A123D
:100FDA008A11C1300A128A15E2260A128A110130D0
:100FEA000A128A15C1260A128A11FF2FFF2FFF2F14
:100FFA00FF2FFF2F080008308A000408840A82079E
:10100A000034743469346D3465342034733465348F
:10101A00743420346F346B3400343F343F343F34FB
:10102A000034573445344434003454345534453448
:10103A00003446345234493400344D344F344E343B
:10104A000034533455344E34003453344134543418
:10105A000034543448345534003441344D34003467
:06106A0050344D34003447
:101C3400FD01B501B601B701B80183010A128A1585
:101C44003A2F831603131114272E83128C1D2B2E67
:101C54002C2E272E8C110800831603131115322EF7
:101C640083128C1D362E372E322E8C1108008316CB
:101C7400031391143D2E83128C1D412E422E3D2EB2
:101C84008C1108008316031391161116492E831222
:101C94008C1D4D2E4E2E492E8C11080083160313D5
:101CA40091121116552E83128C1D592E5A2E552E13
:101CB4008C110800831603139115602E83128C1D5A
:101CC400642E652E602E8C111308682E08000130D6
:101CD4000A128A15E2260A128A150D30F600FB3024
:101CE400F500F50B732EF60B732E782E0800F0001A
:101CF40070088312031393007F2E8C1D822E832E73
:101D04007F2E8C1183160313111B892E8A2E8C2E81
:101D140003108F2E03148F2E8F2E0800F300F20170
:101D2400731C952E962E9B2E7008F1007108F207F5
:101D34009B2E0310F00D0310F30CF308031DA32EC8
:101D4400A42E922EA52E7208A72E08008312031328
:101D540006140430F1003D30F000F00BAF2EF10B0F
:101D6400AF2EB42E8312031306100430F1003D305D
:101D7400F000F00BBB2EF10BBB2EC02E0800F600BA
:101D8400D42E760884000A128A1500200A128A15B5
:101D94000A128A150E270A128A150130F5007508F1
:101DA400F607D42E760884000A128A1500200A1237
:101DB4008A150038031DDF2EE02EC32EE12E080005
:101DC400F4008312031386100F30F20072088605A4
:101DD4007408F039F200720886040A128A15A826DB
:101DE4000A128A150F30F200720883120313860553
:101DF4007408F20003300310F20DFF3E031DFD2EA4
:101E04000310720DF039F300730886040A128A1560
:101E1400A8260A128A150800F400831203138614F4
:101E24000F30F200720886057408F039F200720867
:101E340086040A128A15A8260A128A150F30F2009F
:101E440072088312031386057408F200033003102A
:101E5400F20DFF3E031D292F0310720DF039F3001C
:101E6400730886040A128A15A8260A128A1508001D
:101E74000A128A11A7210A128A150A128A11052048
:101E84000A128A150C3083120313B2003208F900C7
:101E94003B30B3003308FA003230B4003408FB009E
:101EA40002300A128A11DC220A128A150C308312BB
:101EB4000313B2003208F9000C30B3003308FA00FF
:101EC4000630B4003408FB000F300A128A117E2455
:101ED4000A128A156D2F0A128A1178260A128A1597
:101EE4000A128A1137220A128A150A128A11A223A7
:101EF4000A128A150A128A11C3200A128A150A12B2
:101F04008A1168250A128A15033083120313B40058
:101F14008A30B3005630B200B20B8E2FB30B8E2F23
:101F2400B40B8E2F952F6D2F6D2F0A128A11002856
:101F3400F601F31F9E2F9F2FA82FF209F309F20A2F
:101F44000319F30AF6010314F60DA82FF11FAB2FA2
:101F5400AC2FB22FF009F109F00A0319F10AB22FDC
:101F6400710870040319B72FB82FEE2FF50103146D
:101F7400F50DC82F01300310F00DF10DFF3E031DC8
:101F8400BD2F0130F4007408F507C82FF11FCB2FC3
:101F9400CC2FBC2FCE2FCE2F71087302031DD42F4C
:101FA40070087202031CD72FD82FDF2F7008F2029B
:101FB4007108031CF303F302DF2F01300310F10C4B
:101FC400F00CFF3E031DE02F0130F502031DEB2F43
:101FD400EC2FCE2FEE2FEE2F7608031DF22FF82FC5
:101FE400F209F309F20A0319F30AF82F7308F1014D
:0C1FF400F1077208F001F007FF2F080051
:02400E0072FF3F
:00000001FF
