:060000000A128A11EB2D2B
:100BD6005330A9006130AA006530AB00AC00830138
:100BE6000A128A11022E831603133130071687154F
:100BF60093008030940028308312940008002C085B
:100C0600A3002B08A2002A08A1002908A000A4011D
:100C1600A501A601A7010A128A117C260A128A11C9
:100C26000A128A11F6250A128A116430F101F10AB4
:100C3600F201F3000A128A1113270A128A11F1012E
:100C4600F10AF2010A128A112D270A128A11A80046
:100C56002030F1002030F201F3000430F4000A12D3
:100C66008A1153270A128A112030F1002430F2012A
:100C7600F3000430F400F5010A128A1183270A12E0
:100C86008A1124080A128A116B260A128A11831203
:100C9600031325080A128A116B260A128A11831277
:100CA600031326080A128A116B260A128A11831266
:100CB600031327080A128A116B260A128A11831255
:100CC600031328080A128A116B260A128A116A2E41
:100CD600F2000F30861486057208F0398604DA268B
:100CE6000A128A110F3010278605720EF039860413
:100CF600DA2E09270A128A118316023009270A12E8
:100D06008A11F5000430F400BA30F300F30B892E93
:100D1600F40B892EF50B892E640002270A128A111C
:100D2600DA260A128A112730F400F530F300F30BA5
:100D36009A2EF40B9A2E0F30102786053030860433
:100D4600DA260A128A11D630F300A92EAA2EF30B40
:100D5600A82E640002270A128A11DA260A128A11BC
:100D66000D30F400FB30F300F30BB72EF40BB72E67
:100D7600BC2E0F30102786058616DA260A128A112F
:100D86000D30F400FB30F300F30BC72EF40BC72E27
:100D9600CC2E2830F0260A128A110C30F0260A12C0
:100DA6008A110130F0260A128A110630F02E04301C
:100DB6000614F1003D30F000F00BDF2EF10BDF2EB4
:100DC600E42E102704300610F1003D30F000F00B41
:100DD600EA2EF10BEA2EEF2E0800F20010270F3054
:100DE600861086057208F0398604DA260A128A11F8
:100DF6000F3010278605720EF0398604DA2E0F3072
:100E06008312031386053030860408000610861008
:100E160006128612061386130800831203130800AF
:100E2600DA270A128A11A030C5270A128A11031C72
:100E3600202FD3270A128A11162F7208C5270A12E5
:100E46008A117108C5270A128A117308C5270A1262
:100E56008A11E92FDA270A128A11A030C5270A1249
:100E66008A11031C3A2FD3270A128A11302F7208CF
:100E7600C5270A128A117108C5270A128A11D327B3
:100E86000A128A11A130C5270A128A11E1270A120D
:100E96008A11F300F0270A128A11E927730808005D
:100EA600DA270A128A11A030C5270A128A11031CF2
:100EB600602FD3270A128A11562F7208C5270A12E5
:100EC6008A117108C5270A128A11F701F8017408F8
:100ED600F500F60176087802031D732F7508770270
:100EE6000318822F77087307F50084008313000820
:100EF600C5270A128A11F70A0319F80A6A2FE92F79
:100F0600DA270A128A11A030C5270A128A11031C91
:100F1600902FD3270A128A11862F7208C5270A1224
:100F26008A117108C5270A128A11D3270A128A1153
:100F3600A130C5270A128A1173088400E1270A1214
:100F46008A1183138000F701F70AF8017508780201
:100F5600031DAF2F740877020318C12FF8270A1252
:100F66008A1177087307F60076088400E1270A12CB
:100F76008A118000F70A0319F80AA92FF0270A1226
:100F86008A11E92FF0007008831293008C1DC92F77
:100F96008C118316111BD12F0310080003140800AF
:100FA6008316911483128C1DD52F8C11080083167D
:100FB600111483128C1DDC2F8C11080083169115D9
:100FC60083128C1DE32F8C1113080800831611154C
:100FD60083128C1DEB2F8C110800831691161116A7
:100FE60083128C1DF32F8C11080083169112111693
:0A0FF60083128C1DFB2F8C110800E4
:02400E0072FF3F
:00000001FF
