:100000000A128A15102E00308A000408840A82071A
:100010000034203420342034203420342034203460
:100020002034203420342034203420342034203430
:100030002034003420342034203443344F344E34C0
:10004000543452344F344C344C34453452342034CC
:100050002034203400342034203453344F344C3492
:1000600041345234203443344834413452344734D8
:100070004534203420340034203420346234613458
:10008000743474346534723479342034663475349D
:100090006C346C342034203400342A342A34423412
:1000A00061347434743465347234793420346C348B
:1000B0006F3477342A342A340034703461346E3427
:1000C00065346C342034203420343D3400346234C0
:1000D00061347434743465347234793420343D348A
:0200E0000034EA
:1000E4007608831203138600081788170130F0007E
:1000F4000030F1000A128A15DE260A128A118312D0
:100104000313881385280800F501F60171087004AB
:1001140003198D288E28CC28F7010314F70D9E2887
:1001240001300310F00DF10DFF3E031D9328013043
:10013400F4007408F7079E28F11FA128A22892282A
:10014400A428A42801300310F50DF60DFF3E031D6D
:10015400A52871087302031DB12870087202031CDC
:10016400B428B528BD287008F2027108031CF303F3
:10017400F3027514BD2801300310F10CF00CFF3E9E
:10018400031DBE280130F702031DC928CA28A4286C
:10019400CC28CC287608F101F1077508F001F007A6
:1001A400D32808007308031DD828E02872087104B6
:1001B4007004031DDE28DF28F628E0280030F00054
:1001C4000030F1000030F2004E294E29F6280130AB
:1001D400F5007508F30701300310F20CF10CF00C74
:1001E400FF3E031DEE28F628FE307205031DFB2892
:1001F400FC28E928142914290130F5007508F307AF
:100204000130F007003003180130F1070030031803
:100214000130F20701300310F20CF10CF00CFF3E38
:10022400031D0D29FF307205031D19291A29FE2803
:10023400272927290130F30201300310F00DF10DB5
:10024400F20DFF3E031D1F292729F11F2A292B29FF
:100254001C2973182E292F293529FF30F0057F30EA
:10026400F105FF30F2050310F30C7308F500F601F5
:10027400F70110300310F50DF60DF70DFF3E031DC9
:100284003C297508F0047608F1047708F204740830
:10029400031D4D294E29F21708000430831203135D
:1002A4005402003003195302031859295A29CD293D
:1002B4005408B101B1075308B001B0070A128A15F6
:1002C4003D260A128A11831203133008B60031083E
:1002D400B7003208B800C030B3007F30B4004430F7
:1002E400B5000A128A111C230A128A1183120313FD
:1002F4003308C6003408C7003508C8000A128A1536
:1003040010270A128A11831203133108B701B707A1
:100314003008B601B6070A128A1582260A128A1113
:10032400831203133608C3003708C4003808C50015
:100334000A128A11E4230A128A118312031343084E
:10034400A6004408A7004508A8000A128A11CE2175
:100354000A128A11831203132708D401D40726082A
:10036400D301D30797125318B829BC298312031356
:100374001716BF298312031317125408D600530803
:10038400D50002300310D60CD50CFF3E031DC42942
:1003940055089500CD290800831203132608F90097
:1003A4002708FA002808FB0003107A0D7B0DFC00D7
:1003B4007C08AF00AF08031DE029E129EB290030D8
:1003C400A9000030A8000030A7000030A600732A5E
:1003D400732A2608F9002708FA002808FB001730BA
:1003E4000310FB0CFA0CF90CFF3E031DF2297908EB
:1003F400FC007C08AA00A717FF30A605FF30A7055C
:100404000030A8052608AB002708AC002808AD007A
:10041400AE018E30AF02AF1F102A112A362A2F08E0
:10042400803A8F3E0318172A182A232A0030A9007D
:100434000030A8000030A7000030A600732A732AF9
:10044400232A01300310AE0CAD0CAC0CAB0CFF3EF8
:10045400031D242A0130F9007908AF07031D332A4C
:10046400342A232A5A2A5A2A18302F02031C3B2AD8
:100474003C2A532A0030A9000030A8000030A7000D
:100484000030A600732A732A532A0130F90003109E
:10049400AB0DAC0DAD0DAE0DF90B492A0130AF0219
:1004A400532AAF08031D572A582A472A5A2A5A2A78
:1004B4002A08031D5E2A6A2AAB09AC09AD09AE09F4
:1004C400AB0A0319AC0A0319AD0A0319AE0A6A2A66
:1004D4002E08A9002D08A8002C08A7002B08A600A8
:1004E400732A080083120313A101F31F7A2A7B2ABB
:1004F4008A2AF009F109F209F309F00A0319F10A49
:100504000319F20A0319F30AA1010314A10D8A2A9B
:10051400F71F8D2A8E2A9E2AF409F509F609F70990
:10052400F40A0319F50A0319F60A0319F70A013044
:10053400F8007808A1069E2A0030A5000030A40027
:100544000030A3000030A200730872047104700428
:100554000319AD2AAE2A022BA0010314A00DC02A50
:100564000130F8000310F00DF10DF20DF30DF80B4E
:10057400B42A0130F8007808A007C02AF31FC32A60
:10058400C42AB22AC62AC62A0130F8000310A20DD2
:10059400A30DA40DA50DF80BC82A73087702031D3B
:1005A400DD2A72087602031DDD2A71087502031D17
:1005B400DD2A70087402031CE02AE12AF12A70087B
:1005C400F4027108031C710FF5027208031C720F08
:1005D400F6027308031C730FF7022214F12A013088
:1005E4000310F30CF20CF10CF00CFF3E031DF22A85
:1005F4000130A002031DFF2A002BC62A022B022B66
:100604002108031D062B122BA209A309A409A5097D
:10061400A20A0319A30A0319A40A0319A50A122B8F
:100624002508F3002408F2002308F1002208F00052
:100634001B2B0800831203133608B9003708BA00CD
:100644003808BB0003103A0D3B0DBC003C08C10048
:10065400C108031D2E2B2F2B372B0030B300003085
:10066400B4000030B500E32BE32B3308B9003408A1
:10067400BA003508BB0003103A0D3B0DBC003C0822
:10068400C200C208031D472B482B502B0030B30077
:100694000030B4000030B500E32BE32B0030BE0083
:1006A4000030BF000030C00089304207B90039086B
:1006B400C1023608B9003708BA003808BB00103048
:1006C4000310BB0CBA0CB90CFF3E031D622B390896
:1006D400BC003C08C2003308B9003408BA0035082D
:1006E400BB0010300310BB0CBA0CB90CFF3E031D49
:1006F400742B3908BC003C08C2068030B9003908A4
:10070400C205B717FF30B605FF30B7050030B8058E
:10071400B417FF30B305FF30B4050030B505183009
:10072400B9003908BD00962B01300310BE0DBF0D72
:10073400C00DFF3E031D972B35083802031DA82B5F
:1007440034083702031DA82B33083602031CAB2BD5
:10075400AC2BB82B3308B6023408031C340FB70291
:100764003508031C350AB8023E14B82B01300310B7
:10077400B60DB70DB80DFF3E031DB92B0130BD02F8
:10078400031DC52BC62B962BC72B3E08F0003F0834
:10079400F1004008F2004108B9003908F3004208AA
:1007A400BA003A08F4000A128A11D4200A128A11F3
:1007B400700883120313B3007108B4007208B50003
:1007C400E32B0800831203134308C9004408CA003A
:1007D4004508CB0003104A0D4B0DCC004C08CD004E
:1007E400CD08031DF62BF72BFF2B0030C300003080
:1007F400C4000030C500D12CD12C4608C9004708DC
:10080400CA004808CB0003104A0D4B0DCC004C081D
:10081400D200D208031D0F2C102C182C0030C3005A
:100824000030C4000030C500D12CD12C52087B3ECE
:10083400C9004908CD074308C9004408CA0045084F
:10084400CB0010300310CB0CCA0CC90CFF3E031DA7
:10085400242C4908CC004C08D2004608C90047089B
:10086400CA004808CB0010300310CB0CCA0CC90CCA
:10087400FF3E031D362C4908CC004C08D2068030BC
:10088400C9004908D205C417C717FF30C605FF3091
:10089400C7050030C8050030CE000030CF0000305E
:1008A400D0000730C9004908D100582C431C5B2CE8
:1008B4005C2C6D2C4608CE07470803110318470A21
:1008C4000319652CCF07480803110318480A0319B4
:1008D4006C2CD0076D2C01300310C50CC40CC30C58
:1008E400FF3E031D6E2C01300310C60DC70DC80D4D
:1008F400FF3E031D762C0130D102031D822C832C74
:10090400582C842C0930C9004908D100892C431C77
:100914008C2C8D2C9E2C4608CE07470803110318F7
:10092400470A0319962CCF07480803110318480AED
:1009340003199D2CD0079E2C01300310C50CC40C48
:10094400C30CFF3E031D9F2C01300310D00CCF0CB1
:10095400CE0CFF3E031DA72C0130D102031DB32C86
:10096400B42C892CB52C4E08F0004F08F100500827
:10097400F2004D08C9004908F3005208CA004A08A9
:10098400F4000A128A11D4200A128A117008831200
:100994000313C3007108C4007208C500D12C0800F9
:1009A40083120313A0002008F800F9017808F0006E
:1009B4007908F1003C30F2000030F3000A128A1585
:1009C40058260A128A11710883120313A401A4077A
:1009D4007008A301A3071030F0002730F1002408A9
:1009E400F301F3072308F201F2070A128A118620A1
:1009F4000A128A11710883120313A201A207700854
:100A0400A101A1078930F6000030F7000A128A1507
:100A140029260A128A110130F0000030F1000A126E
:100A24008A15DE260A128A11831203132108303E26
:100A3400F60022080318013E003EF7000A128A114C
:100A440072200A128A110130F0000030F1000A12FB
:100A54008A15DE260A128A111030F0002730F100C0
:100A6400831203132408F301F3072308F201F207A6
:100A74000A128A15BC270A128A11710883120313F9
:100A8400A401A4077008A301A307E830F000033011
:100A9400F1002408F301F3072308F201F2070A1214
:100AA4008A1186200A128A11710883120313A20183
:100AB400A2077008A101A1072108303EF600220810
:100AC4000318013E003EF7000A128A1172200A122E
:100AD4008A110130F0000030F1000A128A15DE2676
:100AE4000A128A112E30F6000030F7000A128A1119
:100AF40072200A128A110130F0000030F1000A124B
:100B04008A15DE260A128A11E830F0000330F1005B
:100B1400831203132408F301F3072308F201F207F5
:100B24000A128A15BC270A128A1171088312031348
:100B3400A401A4077008A301A3076430F0000030E7
:100B4400F1002408F301F3072308F201F2070A1263
:100B54008A1186200A128A11710883120313A201D2
:100B6400A2077008A101A1072108303EF60022085F
:100B74000318013E003EF7000A128A1172200A127D
:100B84008A110130F0000030F1000A128A15DE26C5
:100B94000A128A116430F0000030F100831203134A
:100BA4002408F301F3072308F201F2070A128A1555
:100BB400BC270A128A11710883120313A401A40723
:100BC4007008A301A3070A30F0000030F1002408E4
:100BD400F301F3072308F201F2070A128A118620AF
:100BE4000A128A11710883120313A201A207700862
:100BF400A101A1072108303EF60022080318013E96
:100C0400003EF7000A128A1172200A128A1101307A
:100C1400F0000030F1000A128A15DE260A128A1149
:100C240008008316031386010F308800870183129E
:100C3400031386010A128A1517260A128A11003034
:100C440083120313A9000030A8001330A7008830D2
:100C5400A6000A128A157B270A128A113830F60078
:100C64000030F7000A128A1529260A128A110A305E
:100C7400F0000030F1000A128A15DE260A128A11E9
:100C84000C30F6000030F7000A128A1529260A12E1
:100C94008A110A30F0000030F1000A128A15DE26AB
:100CA4000A128A118030F6000030F7000A128A1501
:100CB40029260A128A110A30F0000030F1000A12C3
:100CC4008A15DE260A128A110130F6000030F70078
:100CD4000A128A1529260A128A110A30F0000030F5
:100CE400F1000A128A15DE260A128A1123300A122A
:100CF4008A15AE260A128A110A30F0000030F1007B
:100D04000A128A15DE260A128A11C030F600003053
:100D1400F7000A128A1529260A128A1112300A12B9
:100D24008A15AE260A128A11DC30F0000530F10073
:100D34000A128A15DE260A128A11A02E00300A121F
:100D44008A1542270A128A11760883120313D700E0
:100D54005708D9008030F6000030F7000A128A15CF
:100D640029260A128A110A30F0000030F1000A1212
:100D74008A15DE260A128A1155300A128A15AE2601
:100D84000A128A118312031359080A128A11D224EF
:100D94000A128A115630F6000030F7000A128A113E
:100DA40072200A128A110A128A150B260A128A1153
:100DB400831203130711C430F0000930F1000A1242
:100DC4008A15DE260A128A1101300A128A15422770
:100DD4000A128A11760883120313D7005708D80021
:100DE4008030F6000030F7000A128A1529260A120C
:100DF4008A110A30F0000030F1000A128A15DE264A
:100E04000A128A115F300A128A15AE260A128A1152
:100E14008312031358080A128A11D2240A128A115F
:100E24005630F6000030F7000A128A1172200A12B6
:100E34008A1165308312031358020318222F232FBB
:100E4400442FC030F6000030F7000A128A15292614
:100E54000A128A110130F0000030F1000A128A15DA
:100E6400DE260A128A1145300A128A15AE260A12A3
:100E74008A110A128A1520260A128A118312031370
:100E84000712442F65305802031C492F4A2F712F33
:100E94008730580203184F2F502F712FC030F6009F
:100EA4000030F7000A128A1529260A128A11013025
:100EB400F0000030F1000A128A15DE260A128A11A7
:100EC40001300A128A15AE260A128A110A128A15EC
:100ED40020260A128A11831203130716712F8730F2
:100EE4005802031C762F772F992FC030F60000305C
:100EF400F7000A128A1529260A128A110130F00015
:100F04000030F1000A128A15DE260A128A113430E2
:100F14000A128A15AE260A128A110A128A150B269B
:100F24000A128A118312031307110716992F8230AC
:100F3400590203189E2F9F2FA92FFE30D300033090
:100F4400D4000A128A114F210A128A11A92F913052
:100F54008312031359020318B02FB12FC12F82300B
:100F64005902031CB62FB72FC12FB630D30003305C
:100F7400D4000A128A114F210A128A11C12FB430E7
:100F84008312031359020318C82FC92FD82F913085
:100F94005902031CCE2FCF2FD82F2030D30003307B
:100FA400D4000A128A114F210A128A11C430F000A7
:100FB4000930F1000A128A15DE260A128A11B530A8
:100FC400831203135902031CE82FE92FF22F583020
:100FD400D3000230D4000A128A114F210A128A1156
:100FE400C430F0000930F1000A128A15DE260A1214
:0C0FF4008A11A02EA02E0A128A110028DB
:101C160083120313971117110800DE01DF01E0019B
:101C260083010A128A11132E4130831203139F0077
:101C36004030831603139F00080083120313971581
:101C46001715121583160313071108007608831259
:101C560003138600081388170130F0000030F100E6
:101C66000A128A15DE260A128A15831203138813AE
:101C76003C2E0800831203133008F0003108F100EF
:101C8600F2018E30FD007D08F300F4010A128A117C
:101C9600D4200A128A15700883120313B000710843
:101CA600B1007208B200572E0800F401F5015B2E50
:101CB600701C5E2E5F2E652E7208F4070318F50A57
:101CC6007308F50701300310F20DF30DFF3E031DF7
:101CD600662E01300310F10CF00CFF3E031D6D2E35
:101CE60071087004031D782E792E5B2E7A2E7508E6
:101CF600F101F1077408F001F007812E0800FD01DB
:101D060083120313B71F882E892E922EB609B709A0
:101D1600B60A0319B70AFD010314FD0D922E360803
:101D2600F0003708F100F2018E30B9003908F300EF
:101D36007D08BA003A08F4000A128A11D4200A1261
:101D46008A15700883120313B6007108B70072086B
:101D5600B800AD2E0800FA00D02E7A0884000A12C8
:101D66008A1103200A128A15F800F9017808F6008C
:101D76007908F7000A128A1172200A128A150130B0
:101D8600F0000030F1000A128A15DE260A128A15C2
:101D96000130F8007808FA07D02E7A0884000A1273
:101DA6008A1103200A128A150038031DDB2EDC2E49
:101DB600B02EDD2E0800F201F301042FF401F50127
:101DC60000307502FB3003197402031CEB2EEC2E57
:101DD600EE2EFE2EFE2E0130F4070318F50A003013
:101DE600F50700307502FB3003197402031CFC2E44
:101DF600FD2EEE2EFE2E0130F2070318F30A0030F8
:101E0600F30771087302031D0A2F70087202031C80
:101E16000D2F0E2FE12E0F2F0800831203135A08E1
:101E2600B2005B08B3005C08B4005D08B500023080
:101E36000310B20DB30DB40DB50DFF3E031D1B2FE0
:101E46003508F3003408F2003308F1003208F000D8
:101E56000130F7003130F6002D30F5000030F40087
:101E66000A128A1174220A128A1571088312031340
:101E7600B101B1077008B001B007412F0800FA00A0
:101E860008307A02031C482F492F4D2FF601F7011F
:101E96007A2F7A2FC530F8007808831203139F052E
:101EA6007A08F80002300310F80DFF3E031D562F86
:101EB6000310780DF90079089F040A30F00000300D
:101EC600F1000A128A15DE260A128A1583120313F6
:101ED6001F156D2F1F19702F712F6D2F722F1E0852
:101EE600F800F9017808F6007908F7007A2F08005B
:101EF600831203135A08F9005B08FA005C08FB001A
:101F06005D08FC0002300310F90DFA0DFB0DFC0D07
:101F1600FF3E031D862F02300310F90DFA0DFB0D4F
:101F2600FC0DFF3E031D8F2F7C08F3007B08F2009B
:101F36007A08F1007908F0000130F7003130F60038
:101F46002D30F5000030F4000A128A1174220A12AC
:101F56008A157008FF3E831603139200831203133B
:101F66002908DD002808DC002708DB002608DA003F
:101F76000800710870040319C12FC22FF82FF5014C
:101F86000314F50DD22F01300310F00DF10DFF3EB5
:101F9600031DC72F0130F4007408F507D22FF11F77
:101FA600D52FD62FC62FD82FD82F71087302031D11
:101FB600DE2F70087202031CE12FE22FE92F700852
:101FC600F2027108031CF303F302E92F0130031038
:101FD600F10CF00CFF3E031DEA2F0130F502031D44
:101FE600F52FF62FD82FF82FF82F7308F101F107E8
:0A1FF6007208F001F007FF2F080049
:02400E0072FF3F
:00000001FF
