:060000000A128A11122809
:10000800FE00030EFA000408FB000A08FC00831235
:1000180003137F08FD000A128A11A3280A128A1105
:10002800A8298316031386010F3088000F30870034
:100038008312031386010A128A1119220A128A11DD
:10004800383083120313DC000030DD000A128A11F5
:10005800F1210A128A110A3083120313D6000030E4
:10006800D7000A128A1112210A128A110C3083123F
:100078000313DC000030DD000A128A11F1210A1294
:100088008A110A3083120313D6000030D7000A12EF
:100098008A1112210A128A11803083120313DC009C
:1000A8000030DD000A128A11F1210A128A110A3081
:1000B80083120313D6000030D7000A128A111221C6
:1000C8000A128A11013083120313DC000030DD00AC
:1000D8000A128A11F1210A128A110A3083120313B3
:1000E800D6000030D7000A128A1112210A128A118A
:1000F80001300A128A11DC200A128A11C0308312D8
:100108000313DC000030DD000A128A11F1210A1203
:100118008A110A3083120313D6000030D7000A125E
:100128008A1112210A128A110C300A128A117821B6
:100138000A128A119F289F280A128A1112288316E8
:1001480003138C1EA828A928D028831203138C1EF9
:10015800AE28AF28D0288C121A08F8004A08903E1A
:1001680084007808831780004A08903E84000008BD
:10017800F800F9017808F6007908F7000A128A11E0
:1001880005220A128A11013083120313CA070318C1
:10019800CB0A0030CB07D0287D088312FF007C08EB
:1001A8008A007B0884007A0E8300FE0E7E0E09000A
:1001B80083120313E0000429600884000A128A11DC
:1001C800C6210A128A11DE00DF015E08DC005F0822
:1001D800DD000A128A11DD210A128A110130831208
:1001E8000313D6000030D7000A128A1112210A120E
:1001F8008A11013083120313DE005E08E007042928
:10020800600884000A128A11C6210A128A1100386D
:10021800031D0F291029E028112908008312031350
:10022800D801D9013A29DA01DB0100305B02FB3041
:1002380003195A02031C2129222924293429342983
:100248000130DA070318DB0A0030DB0700305B02F5
:10025800FB3003195A02031C322933292429342973
:100268000130D8070318D90A0030D90757085902AE
:10027800031D402956085802031C432944291729FD
:1002880045290800F201F3016C29F401F501003059
:100298007502FB3003197402031C5329542956298B
:1002A800662966290130F4070318F50A0030F507B6
:1002B80000307502FB3003197402031C6429652998
:1002C800562966290130F2070318F30A0030F307AC
:1002D80071087302031D722970087202031C7529C4
:1002E800762949297729080083120313DD009A2902
:1002F8005D0884000A128A11C6210A128A110A129C
:100308008A112A220A128A11013083120313D60095
:100318000030D7000A128A1112210A128A110130FC
:1003280083120313DC005C08DD079A295D0884004A
:100338000A128A11C6210A128A110038031DA5293A
:10034800A6297C29A7290800831320308400563069
:100358000A128A1138220A128A11A0308400E13068
:100368000A128A1138220A128A11831790308400DF
:10037800C2300A128A1138220A128A1183010A121B
:100388008A11152801308A000408840A820700347B
:100398002034203461346E3469346D3461346C3403
:1003A800203420340034683465346C346C346F3451
:1003B8000034831203135C0886000817881701307D
:1003C800D6000030D7000A128A1112210A128A11A7
:1003D800831203138813F0290800831203135C089F
:1003E8008600081388170130D6000030D7000A129B
:1003F8008A1112210A128A11831203138813042AFC
:10040800080076088312031386000817881701303E
:10041800F0000030F1000A128A1146210A128A11EE
:10042800831203138813182A0800831603138717E7
:10043800071381309900C0308B008C162430980047
:100448009030831203139800292A0800831203139B
:10045800D60056089900302A83160313981C352AAB
:10046800362A302A9810080064008001840A04069D
:08047800031900340406392ABF
:00000001FF
