:100000000A128A119B29FF1B0D2883137F1883175F
:100010000008840A0319FF0A08007F087F398A0054
:0A0020000408840A0319FF0A820095
:1003360083010A128A113F2BF700831203138811D7
:100346007708880008150A30F0000030F1000A121C
:100356008A11EC210A128A1183120313081108006C
:10036600DA297D0883120313FF007C0884000A1231
:100376008A1103200A128A11A000A1012008F700A1
:100386002108F8000A128A117B220A128A1101300A
:10039600F0000030F1000A128A11EC210A128A11CB
:1003A6000130FC070318FD0A0030FD07DA297D0835
:1003B60083120313FF007C0884000A128A110320AB
:1003C6000A128A110038031DE929EA29B429EB2902
:1003D6000800F301F4011A2AF501F6017608803ABD
:1003E600FF0080307F02031DFA29EB307502031CE3
:1003F600FD29FE29002A142A142A0130F5070318BC
:10040600F60A0030F6077608803AFF0080307F0251
:10041600031D0F2AEB307502031C122A132A002A29
:10042600142A0130F3070318F40A0030F40774089D
:10043600803AF2007108803A7202031D242A70087D
:100446007302031C272A282AEF29292A0800831267
:10045600031388117708F9007908FB00F030F900DA
:100466007908FB050F30F900790888057B08F90043
:100476007908880408150330F0000030F1000A12EC
:100486008A11EC210A128A118312031308117708C4
:10049600F90003300310F90DFF3E031D4D2A03102A
:1004A600790DFA007A08FB00F030F9007908FB05AF
:1004B6000F30F900790888057B08F9007908880467
:1004C60008150330F0000030F1000A128A11EC2101
:1004D6000A128A118312031308110330F000003048
:1004E600F1000A128A11EC210A128A117A2A0800EE
:1004F6008312031388157708F9007908FB00F0309A
:10050600F9007908FB050F30F900790888057B08A2
:10051600F9007908880408150330F0000030F1006E
:100526000A128A11EC210A128A1183120313081186
:100536007708F90003300310F90DFF3E031D9E2ACC
:100546000310790DFA007A08FB00F030F9007908FB
:10055600FB050F30F900790888057B08F900790852
:10056600880408150330F0000030F1000A128A11E1
:10057600EC210A128A118312031308110330F000CA
:100586000030F1000A128A11EC210A128A11CB2AD4
:1005960008000A30F0000030F1000A128A11EC213E
:1005A6000A128A1128300A128A119F210A128A1108
:1005B6000A30F0000030F1000A128A11EC210A120A
:1005C6008A112830F7000030F8000A128A112A2210
:1005D6000A128A110A30F0000030F1000A128A115C
:1005E600EC210A128A110430F7000030F8000A12D2
:1005F6008A112A220A128A110A30F0000030F1000C
:100606000A128A11EC210A128A110C30F700003006
:10061600F8000A128A112A220A128A110A30F000F8
:100626000030F1000A128A11EC210A128A110130F7
:10063600F7000030F8000A128A112A220A128A11DB
:100646000A30F0000030F1000A128A11EC210A1279
:100656008A110130F7000030F8000A128A112A22A6
:100666000A128A110A30F0000030F1000A128A11CB
:10067600EC210A128A110800FF3083160313860044
:1006860087018801FF308500073089008312031334
:1006960087010730831603139F006430F000003093
:1006A600F1000A128A11EC210A128A110A128A1121
:1006B600CC220A128A110A128A11CC220A128A1133
:1006C6008030F7000030F8000A128A112A220A1236
:1006D6008A110030FC008830FD000A128A11B3210D
:1006E6000A128A11E830F0000330F1000A128A116A
:1006F600EC210A128A117F2B8030F7000030F800B7
:100706000A128A112A220A128A111130FC00883034
:10071600FD000A128A11B3210A128A11C030F700AD
:100726000030F8000A128A112A220A128A1122308F
:10073600FC008830FD000A128A11B3210A128A11C0
:1007460083120313061CA82BA92B732D0130F70067
:100756000030F8000A128A112A220A128A1173300E
:10076600FC008830FD000A128A11B3210A128A1190
:1007760083120313861AC02BC12B132C861CC42B81
:10078600C52BDA2B0715C72B891CCA2BCB2BC72BDE
:1007960007110714E830F0000330F1000A128A113D
:1007A600EC210A128A11831203130710F72B07167E
:1007B6008712DD2B861CE02BE12BDD2B071287121F
:1007C6000715E52B891CE82BE92BE52B07110714E8
:1007D600E830F0000330F1000A128A11EC210A1207
:1007E6008A118312031307108030F7000030F800D7
:1007F6000A128A112A220A128A113330FC00883022
:10080600FD000A128A11B3210A128A11B830F000CB
:100816000B30F1000A128A11EC210A128A117F2B81
:10082600061B162C172C692C861C1A2C1B2C302CFC
:1008360007151D2C091D202C212C1D2C0711071412
:10084600E830F0000330F1000A128A11EC210A1296
:100856008A118312031307104D2C07128716332CA7
:10086600861C362C372C332C0712871207153B2C87
:10087600091D3E2C3F2C3B2C07110714E830F000D5
:100886000330F1000A128A11EC210A128A1183122E
:10089600031307108030F7000030F8000A128A119F
:1008A6002A220A128A114330FC008830FD000A12FF
:1008B6008A11B3210A128A11B830F0000B30F10008
:1008C6000A128A11EC210A128A117F2B861B6C2CC4
:1008D6006D2CDE2C081488109830F0003A30F100A8
:1008E6000A128A11EC210A128A11831203130810C4
:1008F6008810861C7F2C802C952C0715822C891835
:10090600852C862C822C07110714E830F000033062
:10091600F1000A128A11EC210A128A1183120313BA
:100926000710B32C07168712982C861C9B2C9C2C20
:10093600982C071287120715A02C891CA32CA42C0F
:10094600A02C07110714E830F0000330F1000A125A
:100956008A11EC210A128A11831203130710B32C91
:10096600081088149830F0003A30F1000A128A1103
:10097600EC210A128A1183120313081088108030A2
:10098600F7000030F8000A128A112A220A128A1188
:100996005330FC008830FD000A128A11B3210A1276
:1009A6008A11B830F0000B30F1000A128A11EC21DE
:1009B6000A128A117F2B0918E12CE22C532D0814F8
:1009C60088109830F0003A30F1000A128A11EC21B2
:1009D6000A128A118312031308108810861CF42C3D
:1009E600F52C0A2D0715F72C091DFA2CFB2CF72CD4
:1009F60007110714E830F0000330F1000A128A11DB
:100A0600EC210A128A11831203130710282D0712EC
:100A160087160D2D861C102D112D0D2D07128712F0
:100A26000715152D091D182D192D152D071107143C
:100A3600E830F0000330F1000A128A11EC210A12A4
:100A46008A11831203130710282D08108814983072
:100A5600F0003A30F1000A128A11EC210A128A11CA
:100A660083120313081088108030F7000030F80056
:100A76000A128A112A220A128A116330FC0088306F
:100A8600FD000A128A11B3210A128A11B830F00049
:100A96000B30F1000A128A11EC210A128A117F2BFF
:100AA6000130F7000030F8000A128A112A220A12D1
:100AB6008A11BE30FC008830FD000A128A11B3216B
:100AC6000A128A11B830F0000B30F1000A128A11AE
:100AD600EC210A128A117F2B7F2B7F2B7F2B7F2BFA
:100AE6000518762D772D062E861A7A2D7B2D972DB5
:100AF6000130F7000030F8000A128A112A220A1281
:100B06008A11CD30FC008830FD000A128A11B3210B
:100B16000A128A11D030F0000730F1000A128A1149
:100B2600EC210A128A117F2B0130F7000030F80001
:100B36000A128A112A220A128A118230FC0088308F
:100B4600FD000A128A11B3210A128A1183120313B5
:100B5600861DAE2DAF2DCA2D8714E830F000033068
:100B6600F1000A128A11EC210A128A118312031368
:100B7600871007154030F0001F30F1000A128A1165
:100B8600EC210A128A11831203130711E92D0713A8
:100B96008717CD2D861DD02DD12DCD2D071387136B
:100BA6008714E830F0000330F1000A128A11EC21B4
:100BB6000A128A118312031387105030F000463050
:100BC600F1000A128A11EC210A128A118030F7000C
:100BD6000030F8000A128A112A220A128A110930F4
:100BE600FC008930FD000A128A11B3210A128A110B
:100BF600B830F0000B30F1000A128A11EC210A120B
:100C06008A117F2B7F2B8518092E0A2E952E061BFF
:100C16000D2E0E2E2A2E0130F7000030F8000A1293
:100C26008A112A220A128A11DC30FC008830FD0063
:100C36000A128A11B3210A128A11B830F0000B3059
:100C4600F1000A128A11EC210A128A117F2B013057
:100C5600F7000030F8000A128A112A220A128A11B5
:100C66009130FC008830FD000A128A11B3210A1265
:100C76008A1183120313061E412E422E592E871403
:100C8600E830F0000330F1000A128A11EC210A1252
:100C96008A118312031387105030F0004630F1009A
:100CA6000A128A11EC210A128A11782E0717871365
:100CB6005C2E061E5F2E602E5C2E0713871387148C
:100CC600E830F0000330F1000A128A11EC210A1212
:100CD6008A118312031387105030F0004630F1005A
:100CE6000A128A11EC210A128A118030F7000030AC
:100CF600F8000A128A112A220A128A110930FC0007
:100D06008930FD000A128A11B3210A128A11B830FD
:100D1600F0000B30F1000A128A11EC210A128A1136
:100D26007F2B7F2B0519982E992E442F861B9C2EE0
:100D36009D2EB92E0130F7000030F8000A128A11F4
:100D46002A220A128A11EB30FC008830FD000A12B2
:100D56008A11B3210A128A11B830F0000B30F10063
:100D66000A128A11EC210A128A117F2B0130F70030
:100D76000030F8000A128A112A220A128A11A030BB
:100D8600FC008830FD000A128A11B3210A128A116A
:100D960083120313081488109830F0003A30F100DB
:100DA6000A128A11EC210A128A11831203130810FF
:100DB6008810861DDF2EE02EF72E8714E830F0000F
:100DC6000330F1000A128A11EC210A128A118312E9
:100DD600031387105030F0004630F1000A128A11D2
:100DE600EC210A128A11272F07138717FA2E861D60
:100DF600FD2EFE2EFA2E071387138714E830F00017
:100E06000330F1000A128A11EC210A128A118312A8
:100E1600031387105030F0004630F1000A128A1191
:100E2600EC210A128A1183120313081088149830D1
:100E3600F0003A30F1000A128A11EC210A128A11E6
:100E460083120313081088108030F7000030F80072
:100E56000A128A112A220A128A110930FC008930E4
:100E6600FD000A128A11B3210A128A11B830F00065
:100E76000B30F1000A128A11EC210A128A117F2B1B
:100E86007F2B8519472F482FF32F09184B2F4C2FEF
:100E9600682F0130F7000030F8000A128A112A2262
:100EA6000A128A11FA30FC008830FD000A128A11F3
:100EB600B3210A128A11B830F0000B30F1000A1281
:100EC6008A11EC210A128A117F2B0130F7000030BB
:100ED600F8000A128A112A220A128A11AF30FC007F
:100EE6008830FD000A128A11B3210A128A11831270
:100EF6000313081488109830F0003A30F1000A12F3
:100F06008A11EC210A128A11831203130810881021
:100F1600061E8E2F8F2FA62F8714E830F000033081
:100F2600F1000A128A11EC210A128A1183120313A4
:100F360087105030F0004630F1000A128A11EC2179
:100F46000A128A11D62F07138717A92F061EAC2F50
:100F5600AD2FA92F071387138714E830F00003304D
:100F6600F1000A128A11EC210A128A118312031364
:100F76008710D030F0000730F1000A128A11EC21F8
:100F86000A128A1183120313081088149830F0008D
:100F96003A30F1000A128A11EC210A128A118312E0
:100FA6000313081088108030F7000030F8000A128A
:100FB6008A112A220A128A110930FC008930FD00A2
:100FC6000A128A11B3210A128A114030F0001F302A
:100FD600F1000A128A11EC210A128A117F2B7F2B4B
:100FE6008312031387017F2B7F2B7F2B7F2B7F2B76
:100FF6007F2B7F2B0A128A11002820346134753426
:1010060074346F342034733468346F346534203468
:101016007234613463346B34203400347034753484
:1010260074342034733468346F34653420346F3448
:101036006E34203462346F347834203400346F34A4
:10104600723420346734693476346534203472342B
:10105600613463346B3420346E3475346D3400344B
:10106600733468346F34653420346F346E3420340E
:101076007234613463346B342034233431340034B5
:10108600733468346F34653420346F346E342034EE
:101096007234613463346B34203423343234003494
:1010A600733468346F34653420346F346E342034CE
:1010B6007234613463346B34203423343334003473
:1010C600733468346F34653420346F346E342034AE
:1010D6007234613463346B34203423343434003452
:1010E60020342034203470346C3473342034773414
:1010F6006134693474342034203420340034673445
:1011060065347434743469346E346734203472341C
:10111600613463346B3420343134003467346534DD
:101126007434743469346E34673420347234613400
:1011360063346B34203432340034673465347434A9
:10114600743469346E3467342034723461346334F1
:101156006B34203433340034673465347434743477
:1011660069346E34673420347234613463346B34DA
:1011760020343434003473346F3472347234793436
:1011860020346E346F3420347334703461346334F5
:10119600653400347234613463346B342034313452
:1011A600203469347334203465346D3474347934BE
:1011B60000347234613463346B3420343234203476
:1011C60069347334203465346D34743479340034BE
:1011D6007234613463346B342034333420346934EC
:1011E6007334203465346D34743479340034723495
:1011F600613463346B3420343434203469347334CA
:10120600203465346D3474347934003470346C347D
:1012160073342034743461346B346534203473345D
:0812260068346F3465340034B4
:00000001FF
