:060000000A128A11942F80
:100F140000345F3406343B342F3466346D347D340E
:100F240007347F3483133830FD000730FE008A30E5
:100F3400FF002E3084000A128A11AA270A128A118D
:100F440083010A128A11B92F7E088A007F08820061
:100F54000A128A11A6270A128A118000840A040838
:100F64007D0603190034FF0A0319FE0AAA2F203054
:100F740084002E30F0000408F1000A30F2007008FA
:100F8400840083130008F300F00A710884007308D6
:100F94008000F10AF20BC12F83120313AC01AD01DF
:100FA4002D08803AFF0080307F02031DDB2F0A30BA
:100FB4002C02031CDE2FDF2FE12FFD2FFD2F8312C8
:100FC40003132A08203E840083130008860001309E
:100FD400AC070318AD0A0030AD072D08803AFF00B6
:100FE40080307F02031DF82F0A302C02031CFB2FD4
:0C0FF400FC2FE12FFD2F0A128A110028AB
:00000001FF
