:060000000A128A11122809
:10000800FE00030EF6000408F7000A08F800831241
:1000180003137F08F9000A128A15C52E0A128A15D9
:10002800392F013083120313E4000030E5000A126F
:100038008A15B8270A128A110A3083120313DE00C0
:100048000030DF000A128A1591260A128A1111302F
:1000580083120313E9008630EA000A128A15FC2687
:100068000A128A11D03083120313DE000730DF0032
:100078000A128A1591260A128A110A128A152B2643
:100088000A128A11831203132008EF3A031D4D2820
:100098004E28B129A908031D52285328B1290A124C
:1000A8008A153B260A128A11831203132008EF3A95
:1000B800031D5F286028AA29A908031D642865284C
:1000C800AA290130E4000030E5000A128A15B82791
:1000D8000A128A110A3083120313DE000030DF008F
:1000E8000A128A1591260A128A117730831203138D
:1000F800E9008630EA000A128A15FC260A128A11DB
:10010800D03083120313DE000730DF000A128A158D
:1001180091260A128A110A128A152B260A128A11A6
:10012800831203132008EF3A031D9B289C284E2AAC
:10013800A908031DA028A1284E2A0A128A154B26B1
:100148000A128A11831203132008EF3A031DAD28FF
:10015800AE28A229A908031DB228B328A229D530A0
:10016800E4000030E5000C30ED006D08E6000A12EE
:100178008A1577270A128A11831203132008EF3A87
:10018800031DC728C8284E2AA908031DCC28CD2836
:100198004E2AE130E4000030E5000C30ED006D0837
:1001A800E6000A128A1577270A128A1183120313A6
:1001B8002008EF3A031DE128E2284E2AA908031D6A
:1001C800E628E7284E2A2A08ED006D08831603134F
:1001D800EE00831203132B08ED006D08831603133A
:1001E800EF006F086E070E3E83120313ED006D08D3
:1001F80083160313ED00F001F1017108803AFF0046
:1002080080307F02031D0A290F307002031C0D295C
:100218000E291029612961290B3070067104031D0C
:10022800162917292029831603136E080A128A151E
:100238001D260A128A114D290C3070067104031DFF
:10024800262927293029831603136F080A128A15CD
:100258001D260A128A114D290E3070067104031DDD
:10026800362937294029831603136D080A128A157F
:100278001D260A128A114D297008A03E8400831396
:1002880000080A128A151D260A128A114D294D29BD
:100298004D290130F0070318F10A0030F107710801
:1002A800803AFF0080307F02031D5C290F30700206
:1002B800031C5F296029102961292C30831203133C
:1002C800DE000130DF000A128A1591260A128A110F
:1002D800831203132008EF3A031D732974299929FF
:1002E800A908031D7829792999290130E4000030EB
:1002F800E5000A128A15B8270A128A110A308312F1
:100308000313DE000030DF000A128A1591260A1254
:100318008A11553083120313E9008630EA000A1265
:100328008A15FC260A128A114E2A0A128A11DB251E
:100338000A128A114E2A4E2A4E2A4E2A0A128A1167
:10034800DB250A128A114E2A4E2A4E2A0A128A11CF
:10035800DB250A128A114E2A4E2A83120313290812
:10036800013A031DB829B929D9290130E400003020
:10037800E5000A128A15B8270A128A110A30831270
:100388000313DE000030DF000A128A1591260A12D4
:100398008A11F73083120313E9008630EA000A1243
:1003A8008A15FC260A128A114E2A83120313290879
:1003B800023A031DE029E129012A0130E400003056
:1003C800E5000A128A15B8270A128A110A30831220
:1003D8000313DE000030DF000A128A1591260A1284
:1003E8008A11A63083120313E9008630EA000A1244
:1003F8008A15FC260A128A114E2A83120313290829
:10040800033A031D082A092A292A0130E40000308A
:10041800E5000A128A15B8270A128A110A308312CF
:100428000313DE000030DF000A128A1591260A1233
:100438008A11013083120313E9008730EA000A1297
:100448008A15FC260A128A114E2A013083120313D8
:10045800E4000030E5000A128A15B8270A128A114A
:100468000A3083120313DE000030DF000A128A15F7
:1004780091260A128A11B43083120313E9008630D8
:10048800EA000A128A15FC260A128A114E2A4E2AF6
:100498004E2A4E2AF001F1017108803AFF0080309F
:1004A8007F02031D592A0C307002031C5C2A5D2A46
:1004B8005F2A7A2A7A2A831203135408203E84007A
:1004C800831380010130F0070318F10A0030F107A7
:1004D8007108803AFF0080307F02031D752A0C30B6
:1004E8007002031C782A792A5F2A7A2A0800831660
:1004F8000313860188010F308700831203138601D6
:10050800081188110A128A156C260A128A110A1211
:100518008A110A270A128A11831203130718952AC7
:10052800962AA32A982A982A071C9B2A9C2A982A42
:100538009D2A0A128A1115200A128A11A32A8030CC
:1005480083120313E4000030E5000A128A15B82765
:100558000A128A11003083120313E9008630EA0078
:100568000A128A15FC260A128A11C0308312031354
:10057800E4000030E5000A128A15B8270A128A1129
:10058800663083120313E9008630EA000A128A15DE
:10059800FC260A128A110A3083120313DE00003087
:1005A800DF000A128A1591260A128A1196308312E0
:1005B8000313DE000030DF000A128A1591260A12A2
:1005C8008A11E62A803083120313E4000030E50024
:1005D8000A128A15B8270A128A11003083120313E7
:1005E800E9008630EA000A128A15FC260A128A11E6
:1005F800C03083120313E4000030E5000A128A15A4
:10060800B8270A128A11663083120313E90086306C
:10061800EA000A128A15FC260A128A110A30831285
:100628000313DE000030DF000A128A1591260A1231
:100638008A11831203130719222B232BBF2B803017
:10064800E4000030E5000A128A15B8270A128A1158
:10065800223083120313E9008630EA000A128A1551
:10066800FC260A128A11C03083120313E4000030FA
:10067800E5000A128A15B8270A128A114430831233
:100688000313E9008630EA000A128A15FC260A12CA
:100698008A114E2B83120313071D532B542B4E2BF9
:1006A800552B0A128A1167240A128A11831203131E
:1006B8005D08013A031D612B622B942B0130E40085
:1006C8000030E5000A128A15B8270A128A1180300C
:1006D80083120313E4000030E5000A128A15B827D4
:1006E8000A128A11EA3083120313E9008630EA00FD
:1006F8000A128A15FC260A128A1183120313DD01D5
:1007080008118815E830DE000330DF000A128A1568
:1007180091260A128A1183120313081188119D2B3E
:100728000130E4000030E5000A128A15B8270A12E1
:100738008A11803083120313E4000030E5000A12A6
:100748008A15B8270A128A11C23083120313E900E6
:100758008630EA000A128A15FC260A128A11E83045
:1007680083120313DE000330DF000A128A15912674
:100778000A128A11BF2B831203138718C42BC52BA7
:10078800E62A8030E4000030E5000A128A15B8270E
:100798000A128A11223083120313E9008630EA0014
:1007A8000A128A15FC260A128A11C0308312031312
:1007B800E4000030E5000A128A15B8270A128A11E7
:1007C800333083120313E9008630EA000A128A15CF
:1007D800FC260A128A11F02B83120313871CF52BAF
:1007E800F62BF02BF72B0A128A1167240A128A11AA
:1007F800831203135D08013A031D032C042C362CC5
:100808000130E4000030E5000A128A15B8270A1200
:100818008A11803083120313E4000030E5000A12C5
:100828008A15B8270A128A11DD3083120313E900EA
:100838008630EA000A128A15FC260A128A118312E7
:100848000313DD0108158811E830DE000330DF00EE
:100858000A128A1591260A128A11831203130811A3
:100868008811E62A0130E4000030E5000A128A15F2
:10087800B8270A128A11803083120313E40000306B
:10088800E5000A128A15B8270A128A11C2308312A3
:100898000313E9008630EA000A128A15FC260A12B8
:1008A8008A11E83083120313DE000330DF000A12D6
:1008B8008A1591260A128A11E62AE62AE62AE62AE3
:1008C8000A128A1112280A128A152B260A128A116C
:1008D800831203132008EF3A031D732C742C922DF6
:1008E800A908031D782C792C922D0A128A153B260B
:1008F8000A128A11831203132008EF3A031D852C6C
:10090800862C922DA908031D8A2C8B2C922D0A1255
:100918008A152B260A128A11831203132008EF3A2C
:10092800031D972C982C922DA908031D9C2C9D2CF7
:10093800922D0A128A154B260A128A118312031362
:100948002008EF3A031DA92CAA2C922DA908031DF3
:10095800AE2CAF2C922DD530E4000030E5000C30E1
:10096800ED006D08E6000A128A1577270A128A1127
:10097800831203132008EF3A031DC32CC42C922DB5
:10098800A908031DC82CC92C922DF001F10171088A
:10099800803AFF0080307F02031DD42C143070028F
:1009A800031CD72CD82CDA2CF32CF32C7008203EFF
:1009B8008400831380010130F0070318F10A003026
:1009C800F1077108803AFF0080307F02031DEE2C8A
:1009D80014307002031CF12CF22CDA2CF32C0130A9
:1009E80083120313E4000030E5000A128A15B827C1
:1009F8000A128A110A3083120313DE000030DF0066
:100A08000A128A1591260A128A1198308312031342
:100A1800E9008630EA000A128A15FC260A128A11B1
:100A2800CC3083120313E4000130E5001130ED00EF
:100A38006D08E6000A128A1577270A128A11E8302B
:100A480083120313DE000330DF000A128A15912691
:100A58000A128A11831203132008EF3A031D352D59
:100A6800362D5E2DA908031D3A2D3B2D5E2DDD0187
:100A78000314DD0D0130E4000030E5000A128A1588
:100A8800B8270A128A110A3083120313DE000030D5
:100A9800DF000A128A1591260A128A1188308312F9
:100AA8000313E9008630EA000A128A15FC260A12A6
:100AB8008A11922D831203132908093A031D652D03
:100AC800662D862D0130E4000030E5000A128A15F3
:100AD800B8270A128A110A3083120313DE00003085
:100AE800DF000A128A1591260A128A11D030831261
:100AF8000313E9008630EA000A128A15FC260A1256
:100B08008A11922D0A128A11DB250A128A11922D56
:100B1800922D922D922D922D922D922D08008312B6
:100B2800031386146408E6006608E800F030E6005F
:100B38006608E8050F30E600660886056808E600DE
:100B48006608860406150130DE000030DF000A1250
:100B58008A1591260A128A11831203130611640852
:100B6800E60003300310E60DFF3E031DB62D03100B
:100B7800660DE7006708E800F030E6006608E8055B
:100B88000F30E600660886056808E60066088604F1
:100B980006150130DE000030DF000A128A159126A2
:100BA8000A128A11831203130611DA2D0800013084
:100BB80083120313E4000030E5000A128A15B827EF
:100BC8000A128A110A3083120313DE000030DF0094
:100BD8000A128A1591260A128A11F8308312031311
:100BE800E9008630EA000A128A15FC260A128A11E0
:020BF8000800F3
:100C0000203420342034623469346F346D346534D8
:100C10007434723469346334203420342034203402
:100C200000342034203470346C34613463346534DF
:100C30002034663469346E34673465347234203459
:100C4000203400342034203465346E3474346534F8
:100C500072342034663469346E34673465347234E7
:100C6000203420340034203466346F34723420341D
:100C70006F34703465346E34203464346F346F34C0
:100C80007234203420340034203466346F347234AB
:100C9000203463346C346F347334653420346434FA
:100CA0006F346F347234203400344E34653477340A
:100CB0002034663469346E346734653472342034D9
:100CC00061346434643465346434003464346F34BF
:100CD0006F34723420346C346F3463346B342034AA
:100CE000733479347334743465346D34003470344F
:100CF000753474342034663469346E346734653442
:100D00007234203461346734613469346E340034B1
:100D1000203420346D3461347434633468342034C6
:100D200066346F3475346E346434203420340034C7
:100D3000203420347334653461347234633468345D
:100D400069346E3467342034203400342034203445
:100D50006E346F342034663469346E3467346534ED
:100D600072342034203400342034203463346F341F
:100D70006D3420346534723472346F3472342034FC
:100D80002034003461346334633465347334733431
:100D90002034643465346E3469346534643400342A
:100DA000203420346E346F3420346D346134743424
:100DB0006334683420342034003464346F346F3446
:100DC000723420346F34703465346E3469346E3468
:100DD0006734003464346F346F34723420346334D5
:100DE0006C346F34733469346E34673400342034B7
:100DF00020346534723472346F34723420342034C9
:100E00000034203420346634613469346C34203446
:100E1000203400340A3083120313DE000030DF0078
:100E20000A128A1591260A128A1128300A128A118A
:100E3000E2270A128A110A3083120313DE000030FF
:100E4000DF000A128A1591260A128A1128308312AD
:100E50000313E4000030E5000A128A15B8270A12CD
:100E60008A110A3083120313DE000030DF000A12F9
:100E70008A1591260A128A11043083120313E400A2
:100E80000030E5000A128A15B8270A128A110A30C2
:100E900083120313DE000030DF000A128A15912648
:100EA0000A128A110C3083120313E4000030E500AB
:100EB0000A128A15B8270A128A110A3083120313FC
:100EC000DE000030DF000A128A1591260A128A110C
:100ED000013083120313E4000030E5000A128A1582
:100EE000B8270A128A110A3083120313DE00003079
:100EF000DF000A128A1591260A128A110130831224
:100F00000313E4000030E5000A128A15B8270A121C
:100F10008A110A3083120313DE000030DF000A1248
:100F20008A1591260A128A110800EF340134FF3421
:100F3000FF34FF34FF340134003406340634013406
:100F40000034023400341034EF340134FF34FF3401
:100F5000FF34FF34013400340434023401340034EB
:100F60000834EF340134FF34FF34FF34FF340134EC
:100F7000003404340234023400340934EF340134D0
:100F8000FF34FF34FF34FF340134003403340134C0
:100F900000340534EF340134FF34FF34FF34FF34C0
:100FA000013400340334053400340934EF3401349F
:100FB000FF34FF34FF34FF340134003403341D3474
:100FC0000034213483120313E40086106408860081
:100FD00006150A30DE000030DF000A128A1591265D
:100FE0000A128A118312031306110800640080019B
:0C0FF000840A0406031900340406F72FDD
:10100000FF1B0A2883137F1883170008840A03191B
:10101000FF0A08007F087F398A000408840A031940
:04102000FF0A820041
:101C3A0083120313DE005E089900232E8316031312
:101C4A00981C282E292E232E98100800C93083129A
:101C5A000313E4000030E5000C30EA006A08E600ED
:101C6A000A128A1577270A128A150800AF308312DA
:101C7A000313E4000030E5000D30EA006A08E600CC
:101C8A000A128A1577270A128A150800BC308312AD
:101C9A000313E4000030E5000D30EA006A08E600AC
:101CAA000A128A1577270A128A150800EF340134B6
:101CBA00FF34FF34FF34FF34013400340834043471
:101CCA0001340034013400343F3400344E34831676
:101CDA00031387170713181514309900C0308B00A7
:101CEA008C162430980090308312031398007D2EAE
:101CFA0008007E088A007F0882000A128A157E265A
:101D0A000A128A158000840A04087D060319003421
:101D1A00FF0A0319FE0A822E83120313E001E1016E
:101D2A00B92EE201E30100306302FB3003196202BB
:101D3A00031CA02EA12EA32EB32EB32E0130E20730
:101D4A000318E30A0030E30700306302FB3003198B
:101D5A006202031CB12EB22EA32EB32E0130E0076D
:101D6A000318E10A0030E1075F086102031DBF2E74
:101D7A005E086002031CC22EC32E962EC42E0800D3
:101D8A00831603138C1ECA2ECB2EF02E8312031336
:101D9A008C1ED02ED12EF02E981CD42ED52ED72EB6
:101DAA00181218168C121A08EF3A031DDD2EDE2EB1
:101DBA00E12ED401D501E12E1A08F5005408203E7F
:101DCA0084007508831380000130D4070318D50AEC
:101DDA000030D507F02E79088312FF0078088A00B0
:101DEA0077088400760E8300FE0E7E0E0900272FE8
:101DFA00831203136A08FF00690884000A128A150D
:101E0A0000200A128A15EB00EC016B08E4006C084A
:101E1A00E5000A128A1193250A128A1501308312E3
:101E2A000313DE000030DF000A128A1591260A1217
:101E3A008A15013083120313E9070318EA0A0030EE
:101E4A00EA07272F831203136A08FF006908840030
:101E5A000A128A1500200A128A150038031D362F25
:101E6A00372FFD2E382F0800F001F101F201F3019E
:101E7A00F4018313203084005E300A128A11F62797
:101E8A000A128A15831790308400CC300A128A11FC
:101E9A00F6270A128A15103084003D300A128A1178
:101EAA00F6270A128A15DD30FD000E30FE005B307F
:101EBA00FF00CC3084000A128A1582260A128A157B
:101ECA008313ED30FD000730FE009530FF00A0308F
:101EDA0084000A128A1582260A128A1583010A12B6
:101EEA008A117B2AF001F1019C2F700883120313D7
:101EFA006407E8006508E7000318E70AF01F862F61
:101F0A00E703831203136708E9006808840083174C
:101F1A00691C831300080A128A151D260A128A15DB
:101F2A000130F0070318F10A0030F1079C2F7108FD
:101F3A00803A83120313E70080306702031DA72F3C
:101F4A0066087002031CAA2FAB2F7A2FAC2F5830C9
:101F5A0083120313DE000230DF000A128A1591266B
:101F6A000A128A1508008312031386106408E60011
:101F7A006608E800F030E6006608E8050F30E6007B
:101F8A00660886056808E6006608860406150130B4
:101F9A00DE000030DF000A128A1591260A128A151D
:101FAA008312031306116408E60003300310E60DDA
:101FBA00FF3E031DDB2F0310660DE7006708E800EC
:101FCA00F030E6006608E8050F30E6006608860588
:101FDA006808E6006608860406150130DE0000304F
:101FEA00DF000A128A1591260A128A158312031330
:061FFA000611FF2F080094
:00000001FF
